:020000040800F2
:10000000C00A00202902000831020008330200085B
:10001000350200083702000839020008000000001D
:100020000000000000000000000000003B0200088B
:100030003D020008000000003F020008510D0008CA
:10004000430200084302000843020008430200087C
:10005000430200084302000843020008430200086C
:10006000430200084302000843020008430200085C
:10007000430200084302000843020008430200084C
:10008000430200084302000843020008430200083C
:10009000430200084302000843020008430200082C
:1000A000430200084302000843020008430200081C
:1000B000430200084302000843020008430200080C
:1000C00043020008430200084302000843020008FC
:1000D00043020008430200084302000843020008EC
:1000E00043020008430200084302000843020008DC
:1000F00043020008430200084302000843020008CC
:1001000043020008430200084302000843020008BB
:1001100043020008430200084302000843020008AB
:10012000430200084302000843020008430200089B
:10013000430200084302000843020008430200088B
:10014000430200084302000843020008430200087B
:10015000430200084302000843020008430200086B
:10016000430200084302000843020008430200085B
:100170004302000843020008430200080000000098
:10018000430200084302000800F002F800F03CF8C7
:100190000AA090E8000C82448344AAF10107DA45E2
:1001A00001D100F031F8AFF2090EBAE80F0013F0F8
:1001B000010F18BFFB1A43F001031847800D000020
:1001C000A00D0000103A24BF78C878C1FAD85207B1
:1001D00024BF30C830C144BF04680C6070470000C1
:1001E0000023002400250026103A28BF78C1FBD840
:1001F000520728BF30C148BF0B6070471FB500F0E1
:100200008CFE1FBD10B510BD00F058F81146FFF769
:10021000F5FF00F037FE00F076F803B4FFF7F2FFC9
:1002200003BC00F07DF800000948804709480047FA
:10023000FEE7FEE7FEE7FEE7FEE7FEE7FEE7FEE796
:10024000FEE7FEE704480549054A064B70470000F3
:10025000150E000889010008C0040020C00A002013
:10026000C0060020C00600204FF0000200B5134673
:1002700094469646203922BFA0E80C50A0E80C50C6
:10028000B1F12001BFF4F7AF090728BFA0E80C5077
:1002900048BF0CC05DF804EB890028BF40F8042B70
:1002A00008BF704748BF20F8022B11F0804F18BFDD
:1002B00000F8012B7047704770477047754600F093
:1002C0002BF8AE4605006946534620F007008546E8
:1002D00018B020B5FFF7B6FFBDE820404FF000068C
:1002E0004FF000074FF000084FF0000B21F007011E
:1002F000AC46ACE8C009ACE8C009ACE8C009ACE861
:10030000C0098D46704710B50446AFF30080204603
:10031000BDE81040FFF781BF00487047600400202F
:1003200001491820ABBEFEE726000200704700001E
:1003300000F000FB114800F027FC10B100F026F897
:1003400018E00F4800F020FCA0B100F09FFC88B13D
:1003500000BFBFF34F8F0B48006800F4E0600A490C
:100360000843001D07490860BFF34F8F00BF00BF5F
:1003700000BFFDE700F00AF800BFFEE7000001083B
:10038000000406080CED00E00000FA0510B5124864
:10039000006812490840B0F1005F1BD10E48406868
:1003A0000F4908600C49086880F3098800BF0020E5
:1003B00080F31488BFF36F8F00BF086880F308884C
:1003C00000BF00F0BFFB002080F3108800BF04488E
:1003D0000068804710BD0000000001080000FC2FED
:1003E0000000002030B587B0044600200690F120C0
:1003F0000D49086000200190204600F057F8039056
:10040000012004900220059006A901A800F0F0F94F
:1004100005464CF2503000F0B9F915B9012007B08B
:1004200030BD0020FBE700000C3C02402DE9F04706
:1004300005460E4617464FF000084CF2503000F0CB
:10044000A5F9E0B92C4605EB070915E0D6F800C080
:10045000624600232146022000F020FA28B1F12054
:10046000084908604FF0000807E0241D361D4C4580
:1004700002D34FF0010800E0E8E700BF00BF4046AC
:10048000BDE8F0870C3C024030B504460B46002521
:1004900005E0204600F006F801C3241D2D1D9542FD
:1004A000F7D330BD014608687047000001461C487C
:1004B000814201D2002070471A48814201D20120B6
:1004C000F9E71948814201D20220F4E71748814236
:1004D00001D20320EFE71648814201D20420EAE767
:1004E0001448814201D20520E5E71348814201D238
:1004F0000620E0E71148814201D20720DBE71048DF
:10050000814201D20820D6E70E48814201D209205B
:10051000D1E70D48814201D20A20CCE70B20CAE77F
:10052000004000080080000800C00008000001082A
:100530000000020800000408000006080000080887
:1005400000000A0800000C0800000E0810B5002288
:1005500001B909E0012901D10A0205E0022901D10E
:100560000A0201E04FF440720E4B1B6823F4407303
:100570000C4C236023461B681343236023461B68EF
:1005800023F0F803236023461B68022444EAC004D6
:100590002343044C236023461B6843F480332360C9
:1005A00010BD0000103C02401C48006800F40070C0
:1005B000B0B11A48006820F400701849086000BF04
:1005C0000846006840F4006008600846006820F4AF
:1005D0000060086000BF0846006840F400700860D2
:1005E0000E48006800F48060B0B10C48006820F448
:1005F00080600A49086000BF0846006840F48050E7
:1006000008600846006820F48050086000BF084673
:10061000006840F48060086070470000003C0240C1
:100620000A4A126822F44072084B1A601A4612688D
:1006300042F004021A601A4612684FF4803343EA0B
:1006400000231A43014B1A6070470000103C02401F
:10065000074A126822F44072054B1A601A46126863
:100660001A601A46126842F001021A60017070475F
:10067000103C024010B50A49096821F44071084C49
:1006800021602146096841F44071216021460968D2
:1006900041F0010121600260BFF36F8F436010BD24
:1006A000103C0240084A126822F44072064B1A605D
:1006B0001A46126842F480721A601A46126842F0B2
:1006C00001021A6001807047103C0240084A12681B
:1006D00022F44072064B1A601A46126842F4007205
:1006E0001A601A46126842F001021A6001607047EF
:1006F000103C02402348006800F0100040B122483E
:10070000C06940F010002049C86110201D490860F0
:100710001C48006800F0200040B11B48C06940F050
:1007200008001949C861202016490860154800686A
:1007300000F0400040B11448C06940F00400124984
:10074000C86140200F4908600E48006800F0800032
:1007500040B10D48C06940F002000B49C8618020DB
:10076000084908600748006800F0020040B10648E8
:10077000C06940F020000449C861022001490860B6
:10078000704700000C3C02404004002070B5044655
:10079000002500201449C86100F0E6F8054609E08C
:1007A000601C38B124B100F0DFF8401BA04201D931
:1007B000032070BD0D48006800F480300028EFD1A0
:1007C0000A48006800F0010010B1012007490860E4
:1007D0000648006800F0F20018B1FFF78BFF012017
:1007E000E7E70020E5E70000400400200C3C024061
:1007F0002DE9F04104460E460127002500BF25489B
:10080000007E012802D10220BDE8F08101202149AB
:10081000087600BF4CF25030FFF7B8FF0746002FB4
:1008200031D1401E3060206801280FD1207C6168E2
:10083000FFF7F6FE4CF25030FFF7A8FF07461648C8
:10084000006820F00400144908601AE0A56812E06E
:10085000217C2846FFF77AFE4CF25030FFF796FFD6
:1008600007460D48006820F0FA000B4908600FB1F8
:10087000356005E06D1CD4E902100844A842E7D8B1
:1008800000BFFFF791FE00BF00200249087600BFBD
:100890003846B9E740040020103C02402DE9F04101
:1008A00006460F4614461D464FF0010800BF1F487C
:1008B000007E012802D10220BDE8F08101201B4901
:1008C000087600BF4CF25030FFF760FF8046B8F169
:1008D000000F23D126B9E1B23846FFF7B9FE12E086
:1008E000012E04D1A1B23846FFF7DCFE0BE0022E48
:1008F00004D121463846FFF7E9FE04E022462B46A4
:100900003846FFF7B7FE4CF25030FFF73FFF804606
:100910000748006820F001000549086000BF00207A
:100920000249087600BF4046C6E7000040040020A8
:10093000103C024000200949096801F0004159B10A
:100940000749064A0C3A11600649116003490968D3
:1009500001F0004101B1012070470000103C02404D
:1009600023016745AB89EFCD01480068704700005F
:100970000800002070B504460CB9012070BD4CF68B
:10098000CC402168086045F2555021680860D4E9E0
:10099000001048602168A0688860FFF7E5FF054601
:1009A00006E0FFF7E1FF401B302801D90320E5E70F
:1009B0002068C0680028F4D14AF6AA20216808609F
:1009C0000020DBE701464AF6AA200A6810600020F2
:1009D000704700000348006803490978084401494A
:1009E00008607047080000201000002010B50A4879
:1009F000006840F40070084908600846006840F448
:100A000080600860032000F06FF80F2000F006F807
:100A100000F02AF8002010BD003C024070B50446EA
:100A20000E4800784FF47A71B1FBF0F00C49096878
:100A3000B1FBF0F5284600F06BF808B1012070BD5D
:100A4000102C07D200222146501E00F00EF8054857
:100A5000046001E00120F2E70020F0E71000002030
:100A6000040000200C00002070472DE9F05F804654
:100A70000D461646002700F0DBF9074639462A46A0
:100A8000334601F00700C0F1070ABAF1040F02D99A
:100A90004FF0040A01E0C0F1070AD14600F1040A50
:100AA000BAF1070F02D24FF0000A01E0A0F1030AE9
:100AB000D4464FF0010A0AFA09FAAAF1010A0AEA31
:100AC000020A0AFA0CFA4FF0010B0BFA0CFBABF11D
:100AD000010B0BEA030B4AEA0B042146404600F0E7
:100AE000AFF9BDE8F09F000000BF00F00702064B21
:100AF00019684FF6FF031940044B0B4343EA0221E8
:100B0000014B196000BF70470CED00E00000FA05D2
:100B100070B504462546681EB0F1807F01D30120E0
:100B20000FE0681E4FF0E02148610F214FF0FF30C9
:100B300000F086F900204FF0E0218861072008616D
:100B4000002070BD4FF0E020006920F002004FF05F
:100B5000E02108617047000010B5084800F0A5F9D1
:100B600000F088F9064800F0A0F900F083F9054884
:100B700000F09BF900F07EF910BD000000000108B4
:100B800000000208000004082DE9F0418046202101
:100B90003B48FFF769FB4FF480623A493A4800F05E
:100BA00098F93848007E00063649497E40EA0140FF
:100BB0003449897E40EA01203249C97E08433049E0
:100BC00048603048007F00062E49497F40EA0140D6
:100BD0002C49897F40EA01202A49C97F08432849D6
:100BE00088600846406818B108464068401C10B943
:100BF0000020BDE8F0812248806818B12048806854
:100C0000401C08B90020F4E71D484068B0F5A02F4B
:100C100001D90020EDE746464FF480641848456846
:100C2000002700BF4FF480611648FFF71DFBB5F5A4
:100C3000806F02DD4FF4806000E028460446A2B2D7
:100C40001049304600F045F92644002004E00D49E3
:100C5000095C0F44411C88B2A042F8D300F00AF9A5
:100C60002D1B4FF47A7000F0FFF8002DDADC0448F9
:100C70008068B84201D10120BBE70020B9E700003D
:100C80001404002014000020000006082DE9F041A3
:100C9000224E234F7C1423484568406818B12148F0
:100CA0004068401C10B90020BDE8F0811D488068F4
:100CB00018B11C488068401C08B90020F4E71948A6
:100CC0004068B0F5A02F01D90020EDE7FFF744FF01
:100CD00000BF4FF480611448FFF7C6FAB5F5806F86
:100CE00002DD4FF4806000E028460446A2B20E49BF
:100CF000304600F0EEF800F0BDF8A2B20A493846DE
:100D000000F0F1F8264427442D1B4FF47A7000F0D0
:100D1000ABF8002DDDDC0120C6E70000000406086A
:100D200000000108140400201400002010B506483B
:100D3000064908600620486040F6FF71034881605C
:100D4000FFF718FE10BD0000003000403404002002
:100D500010B5FFF73FFE10BD70B500200022022342
:100D600000240221274D2D6805F00C0020B1042835
:100D700006D0082834D107E0234D244E356033E0F7
:100D8000214D224E35602FE01E4D2D1F2D68C5F3DD
:100D900080541C4D2D1F2D6805F03F0154B11A4D94
:100DA000B5FBF1F5174E361F3668C6F3881605FBFE
:100DB00006F209E0144DB5FBF1F5124E361F366808
:100DC000C6F3881605FB06F20E4D2D1F2D68C5F3E0
:100DD00001456D1C6B00B2FBF3F50C4E356003E072
:100DE000094D0A4E356000BF00BF064D2D68C5F3A2
:100DF0000315074E705D054D2D68C540034E3560E7
:100E000070BD0000083802400024F40004000020F7
:100E1000240F00080548006840F47000034908608A
:100E20004FF00060014980390860704788ED00E0AC
:100E300002480068C0F30220704700000CED00E09B
:100E400010B5002804DB0A07130E054A135406E008
:100E50000A07140E034A00F00F031B1FD45410BDE1
:100E600000E400E018ED00E0002100E0491C8142B0
:100E7000FCDB704710B50248FFF7A4FD10BD000071
:100E80003404002010B5002080F3108800BFFFF765
:100E9000ADFDFFF761FFFFF749FF012080F31088E8
:100EA00000BFFFF745FA002010BD70B506460024CC
:100EB00072B6002507E03046FFF794FA044604B105
:100EC00003E0681CC5B2062DF5DB00BF62B6204604
:100ED00070BD70B504460D4616463246294620467A
:100EE000FFF7D2FA70BD2DE9F04106460F46904655
:100EF000002472B6002509E0424639463046FFF725
:100F000095FA044604B103E0681CC5B2062DF3DB74
:100F100000BF62B62046BDE8F0814FF04070E1EEC0
:100F2000100A7047000000000000000001020304E6
:100F30000607080900000000010203045C0F000816
:100F40000000002014000000C4010008700F000819
:100F500014000020AC0A0000E001000800000000BE
:100F60000024F40000000000100000000100000058
:040000050800018965
:00000001FF
