:020000040800F2
:10000000C00A00202902000831020008330200085B
:10001000350200083702000839020008000000001D
:100020000000000000000000000000003B0200088B
:100030003D020008000000003F020008510D0008CA
:10004000430200084302000843020008430200087C
:10005000430200084302000843020008430200086C
:10006000430200084302000843020008430200085C
:10007000430200084302000843020008430200084C
:10008000430200084302000843020008430200083C
:10009000430200084302000843020008430200082C
:1000A000430200084302000843020008430200081C
:1000B000430200084302000843020008430200080C
:1000C00043020008430200084302000843020008FC
:1000D00043020008430200084302000843020008EC
:1000E00043020008430200084302000843020008DC
:1000F00043020008430200084302000843020008CC
:1001000043020008430200084302000843020008BB
:1001100043020008430200084302000843020008AB
:10012000430200084302000843020008430200089B
:10013000430200084302000843020008430200088B
:10014000430200084302000843020008430200087B
:10015000430200084302000843020008430200086B
:10016000430200084302000843020008430200085B
:100170004302000843020008430200080000000098
:10018000430200084302000800F002F800F03CF8C7
:100190000AA090E8000C82448344AAF10107DA45E2
:1001A00001D100F031F8AFF2090EBAE80F0013F0F8
:1001B000010F18BFFB1A43F001031847800D000020
:1001C000A00D0000103A24BF78C878C1FAD85207B1
:1001D00024BF30C830C144BF04680C6070470000C1
:1001E0000023002400250026103A28BF78C1FBD840
:1001F000520728BF30C148BF0B6070471FB500F0E1
:100200008CFE1FBD10B510BD00F058F81146FFF769
:10021000F5FF00F037FE00F076F803B4FFF7F2FFC9
:1002200003BC00F07DF800000948804709480047FA
:10023000FEE7FEE7FEE7FEE7FEE7FEE7FEE7FEE796
:10024000FEE7FEE704480549054A064B70470000F3
:10025000150E000889010008C0040020C00A002013
:10026000C0060020C00600204FF0000200B5134673
:1002700094469646203922BFA0E80C50A0E80C50C6
:10028000B1F12001BFF4F7AF090728BFA0E80C5077
:1002900048BF0CC05DF804EB890028BF40F8042B70
:1002A00008BF704748BF20F8022B11F0804F18BFDD
:1002B00000F8012B7047704770477047754600F093
:1002C0002BF8AE4605006946534620F007008546E8
:1002D00018B020B5FFF7B6FFBDE820404FF000068C
:1002E0004FF000074FF000084FF0000B21F007011E
:1002F000AC46ACE8C009ACE8C009ACE8C009ACE861
:10030000C0098D46704710B50446AFF30080204603
:10031000BDE81040FFF781BF00487047600400202F
:1003200001491820ABBEFEE726000200704700001E
:1003300000F000FB114800F027FC10B100F026F897
:1003400018E00F4800F020FCA0B100F09FFC88B13D
:1003500000BFBFF34F8F0B48006800F4E0600A490C
:100360000843001D07490860BFF34F8F00BF00BF5F
:1003700000BFFDE700F00AF800BFFEE7000001083B
:10038000000406080CED00E00000FA0510B5124864
:10039000006812490840B0F1005F1BD10E48406868
:1003A0000F4908600C49086880F3098800BF0020E5
:1003B00080F31488BFF36F8F00BF086880F308884C
:1003C00000BF00F0BFFB002080F3108800BF04488E
:1003D0000068804710BD0000000001080000FC2FED
:1003E0000000002030B587B0044600200690F120C0
:1003F0000D49086000200190204600F057F8039056
:10040000012004900220059006A901A800F0F0F94F
:1004100005464CF2503000F0B9F915B9012007B08B
:1004200030BD0020FBE700000C3C02402DE9F04706
:1004300005460E4617464FF000084CF2503000F0CB
:10044000A5F9E0B92C4605EB070915E0D6F800C080
:10045000624600232146022000F020FA28B1F12054
:10046000084908604FF0000807E0241D361D4C4580
:1004700002D34FF0010800E0E8E700BF00BF4046AC
:10048000BDE8F0870C3C024030B504460B46002521
:1004900005E0204600F006F801C3241D2D1D9542FD
:1004A000F7D330BD014608687047000001461C487C
:1004B000814201D2002070471A48814201D20120B6
:1004C000F9E71948814201D20220F4E71748814236
:1004D00001D20320EFE71648814201D20420EAE767
:1004E0001448814201D20520E5E71348814201D238
:1004F0000620E0E71148814201D20720DBE71048DF
:10050000814201D20820D6E70E48814201D209205B
:10051000D1E70D48814201D20A20CCE70B20CAE77F
:10052000004000080080000800C00008000001082A
:100530000000020800000408000006080000080887
:1005400000000A0800000C0800000E0810B5002288
:1005500001B909E0012901D10A0205E0022901D10E
:100560000A0201E04FF440720E4B1B6823F4407303
:100570000C4C236023461B681343236023461B68EF
:1005800023F0F803236023461B68022444EAC004D6
:100590002343044C236023461B6843F480332360C9
:1005A00010BD0000103C02401C48006800F40070C0
:1005B000B0B11A48006820F400701849086000BF04
:1005C0000846006840F4006008600846006820F4AF
:1005D0000060086000BF0846006840F400700860D2
:1005E0000E48006800F48060B0B10C48006820F448
:1005F00080600A49086000BF0846006840F48050E7
:1006000008600846006820F48050086000BF084673
:10061000006840F48060086070470000003C0240C1
:100620000A4A126822F44072084B1A601A4612688D
:1006300042F004021A601A4612684FF4803343EA0B
:1006400000231A43014B1A6070470000103C02401F
:10065000074A126822F44072054B1A601A46126863
:100660001A601A46126842F001021A60017070475F
:10067000103C024010B50A49096821F44071084C49
:1006800021602146096841F44071216021460968D2
:1006900041F0010121600260BFF36F8F436010BD24
:1006A000103C0240084A126822F44072064B1A605D
:1006B0001A46126842F480721A601A46126842F0B2
:1006C00001021A6001807047103C0240084A12681B
:1006D00022F44072064B1A601A46126842F4007205
:1006E0001A601A46126842F001021A6001607047EF
:1006F000103C02402348006800F0100040B122483E
:10070000C06940F010002049C86110201D490860F0
:100710001C48006800F0200040B11B48C06940F050
:1007200008001949C861202016490860154800686A
:1007300000F0400040B11448C06940F00400124984
:10074000C86140200F4908600E48006800F0800032
:1007500040B10D48C06940F002000B49C8618020DB
:10076000084908600748006800F0020040B10648E8
:10077000C06940F020000449C861022001490860B6
:10078000704700000C3C02404004002070B5044655
:10079000002500201449C86100F0E6F8054609E08C
:1007A000601C38B124B100F0DFF8401BA04201D931
:1007B000032070BD0D48006800F480300028EFD1A0
:1007C0000A48006800F0010010B1012007490860E4
:1007D0000648006800F0F20018B1FFF78BFF012017
:1007E000E7E70020E5E70000400400200C3C024061
:1007F0002DE9F04104460E460127002500BF25489B
:10080000007E012802D10220BDE8F08101202149AB
:10081000087600BF4CF25030FFF7B8FF0746002FB4
:1008200031D1401E3060206801280FD1207C6168E2
:10083000FFF7F6FE4CF25030FFF7A8FF07461648C8
:10084000006820F00400144908601AE0A56812E06E
:10085000217C2846FFF77AFE4CF25030FFF796FFD6
:1008600007460D48006820F0FA000B4908600FB1F8
:10087000356005E06D1CD4E902100844A842E7D8B1
:1008800000BFFFF791FE00BF00200249087600BFBD
:100890003846B9E740040020103C02402DE9F04101
:1008A00006460F4614461D464FF0010800BF1F487C
:1008B000007E012802D10220BDE8F08101201B4901
:1008C000087600BF4CF25030FFF760FF8046B8F169
:1008D000000F23D126B9E1B23846FFF7B9FE12E086
:1008E000012E04D1A1B23846FFF7DCFE0BE0022E48
:1008F00004D121463846FFF7E9FE04E022462B46A4
:100900003846FFF7B7FE4CF25030FFF73FFF804606
:100910000748006820F001000549086000BF00207A
:100920000249087600BF4046C6E7000040040020A8
:10093000103C024000200949096801F0004159B10A
:100940000749064A0C3A11600649116003490968D3
:1009500001F0004101B1012070470000103C02404D
:1009600023016745AB89EFCD01480068704700005F
:100970000800002070B504460CB9012070BD4CF68B
:10098000CC402168086045F2555021680860D4E9E0
:10099000001048602168A0688860FFF7E5FF054601
:1009A00006E0FFF7E1FF401B302801D90320E5E70F
:1009B0002068C0680028F4D14AF6AA20216808609F
:1009C0000020DBE701464AF6AA200A6810600020F2
:1009D000704700000348006803490978084401494A
:1009E00008607047080000201000002010B50A4879
:1009F000006840F40070084908600846006840F448
:100A000080600860032000F06FF80F2000F006F807
:100A100000F02AF8002010BD003C024070B50446EA
:100A20000E4800784FF47A71B1FBF0F00C49096878
:100A3000B1FBF0F5284600F06BF808B1012070BD5D
:100A4000102C07D200222146501E00F00EF8054857
:100A5000046001E00120F2E70020F0E71000002030
:100A6000040000200C00002070472DE9F05F804654
:100A70000D461646002700F0DBF9074639462A46A0
:100A8000334601F00700C0F1070ABAF1040F02D99A
:100A90004FF0040A01E0C0F1070AD14600F1040A50
:100AA000BAF1070F02D24FF0000A01E0A0F1030AE9
:100AB000D4464FF0010A0AFA09FAAAF1010A0AEA31
:100AC000020A0AFA0CFA4FF0010B0BFA0CFBABF11D
:100AD000010B0BEA030B4AEA0B042146404600F0E7
:100AE000AFF9BDE8F09F000000BF00F00702064B21
:100AF00019684FF6FF031940044B0B4343EA0221E8
:100B0000014B196000BF70470CED00E00000FA05D2
:100B100070B504462546681EB0F1807F01D30120E0
:100B20000FE0681E4FF0E02148610F214FF0FF30C9
:100B300000F086F900204FF0E0218861072008616D
:100B4000002070BD4FF0E020006920F002004FF05F
:100B5000E02108617047000010B5084800F0A5F9D1
:100B600000F088F9064800F0A0F900F083F9054884
:100B700000F09BF900F07EF910BD000000000108B4
:100B800000000208000004082DE9F0418046202101
:100B90003B48FFF769FB4FF480623A493A4800F05E
:100BA00098F93848007E00063649497E40EA0140FF
:100BB0003449897E40EA01203249C97E08433049E0
:100BC00048603048007F00062E49497F40EA0140D6
:100BD0002C49897F40EA01202A49C97F08432849D6
:100BE00088600846406818B108464068401C10B943
:100BF0000020BDE8F0812248806818B12048806854
:100C0000401C08B90020F4E71D484068B0F5A02F4B
:100C100001D90020EDE746464FF480641848456846
:100C2000002700BF4FF480611648FFF71DFBB5F5A4
:100C3000806F02DD4FF4806000E028460446A2B2D7
:100C40001049304600F045F92644002004E00D49E3
:100C5000095C0F44411C88B2A042F8D300F00AF9A5
:100C60002D1B4FF47A7000F0FFF8002DDADC0448F9
:100C70008068B84201D10120BBE70020B9E700003D
:100C80001404002014000020000006082DE9F041A3
:100C9000224E234F7C1423484568406818B12148F0
:100CA0004068401C10B90020BDE8F0811D488068F4
:100CB00018B11C488068401C08B90020F4E71948A6
:100CC0004068B0F5A02F01D90020EDE7FFF744FF01
:100CD00000BF4FF480611448FFF7C6FAB5F5806F86
:100CE00002DD4FF4806000E028460446A2B20E49BF
:100CF000304600F0EEF800F0BDF8A2B20A493846DE
:100D000000F0F1F8264427442D1B4FF47A7000F0D0
:100D1000ABF8002DDDDC0120C6E70000000406086A
:100D200000000108140400201400002010B506483B
:100D3000064908600620486040F6FF71034881605C
:100D4000FFF718FE10BD0000003000403404002002
:100D500010B5FFF73FFE10BD70B500200022022342
:100D600000240221274D2D6805F00C0020B1042835
:100D700006D0082834D107E0234D244E356033E0F7
:100D8000214D224E35602FE01E4D2D1F2D68C5F3DD
:100D900080541C4D2D1F2D6805F03F0154B11A4D94
:100DA000B5FBF1F5174E361F3668C6F3881605FBFE
:100DB00006F209E0144DB5FBF1F5124E361F366808
:100DC000C6F3881605FB06F20E4D2D1F2D68C5F3E0
:100DD00001456D1C6B00B2FBF3F50C4E356003E072
:100DE000094D0A4E356000BF00BF064D2D68C5F3A2
:100DF0000315074E705D054D2D68C540034E3560E7
:100E000070BD0000083802400024F40004000020F7
:100E1000240F00080548006840F47000034908608A
:100E20004FF00060014980390860704788ED00E0AC
:100E300002480068C0F30220704700000CED00E09B
:100E400010B5002804DB0A07130E054A135406E008
:100E50000A07140E034A00F00F031B1FD45410BDE1
:100E600000E400E018ED00E0002100E0491C8142B0
:100E7000FCDB704710B50248FFF7A4FD10BD000071
:100E80003404002010B5002080F3108800BFFFF765
:100E9000ADFDFFF761FFFFF749FF012080F31088E8
:100EA00000BFFFF745FA002010BD70B506460024CC
:100EB00072B6002507E03046FFF794FA044604B105
:100EC00003E0681CC5B2062DF5DB00BF62B6204604
:100ED00070BD70B504460D4616463246294620467A
:100EE000FFF7D2FA70BD2DE9F04106460F46904655
:100EF000002472B6002509E0424639463046FFF725
:100F000095FA044604B103E0681CC5B2062DF3DB74
:100F100000BF62B62046BDE8F0814FF04070E1EEC0
:100F2000100A7047000000000000000001020304E6
:100F30000607080900000000010203045C0F000816
:100F40000000002014000000C4010008700F000819
:100F500014000020AC0A0000E001000800000000BE
:100F60000024F40000000000100000000100000058
:020000040801F1
:1000000088F80120AD0A0108412A020835030108D9
:10001000BD120208318C010845AD02080000000045
:10002000000000000000000000000000E5090108D9
:10003000159B010800000000810A0108910A0108CF
:10004000C70A0108C70A0108C70A0108C70A010848
:10005000C70A0108C70A0108739E0108C70A0108F8
:100060007D9E0108879E0108919E0108C70A01082C
:10007000E99A0108C70A0108EB9A0108C70A0108B2
:10008000ED9A0108EF9A0108C70A0108C70A01089A
:10009000C70A0108C70A0108C70A01089B9E010890
:1000A000C70A0108C70A0108C70A0108C70A0108E8
:1000B000055D0208C70A0108155D0208C70A0108A4
:1000C000C70A0108C70A0108C70A0108C70A0108C8
:1000D000C70A0108B964020841650208C965020837
:1000E000C70A0108AD380208C70A0108C70A010893
:1000F000C70A0108C70A0108C70A0108C70A010898
:10010000C70A0108C70A0108C70A0108C70A010887
:10011000E55E0208C70A0108C70A0108C70A010804
:10012000F19A0108F59A0108C70A0108C70A0108EF
:10013000C70A0108719E0108C70A0108C70A010819
:10014000C70A0108C70A0108C70A0108F9360208E8
:10015000C70A0108059B0108C70A01085D66020875
:10016000C70A0108C70A0108C70A0108C70A010827
:10017000C70A0108C70A0108C70A010800000000F1
:10018000C70A0108C70A010800F002F800F0BEF82B
:100190000AA090E8000C82448344AAF10107DA45E2
:1001A00001D100F0B3F8AFF2090EBAE80F0013F076
:1001B000010F18BFFB1A43F00103184798AA040067
:1001C000B8AA04000A444FF0000C10F8013B13F0E9
:1001D000070408BF10F8014B1D1108BF10F8015BA0
:1001E000641E05D010F8016B641E01F8016BF9D193
:1001F00013F0080F1EBF10F8014BAD1C0C1B09D1EA
:100200006D1E58BF01F801CBFAD505E014F8016B5B
:1002100001F8016B6D1EF9D59142D6D370470000ED
:100220000023002400250026103A28BF78C1FBD8FF
:10023000520728BF30C148BF0B6070476E2901F0DC
:100240007B85702900F0DF8566293DF01A806529DD
:100250003DF0178067293DF0148061293DF013803F
:1002600003681B0A28BF41F08001692900F050850E
:10027000642900F04D85752900F04A856F2902F048
:100280007880782900F0AB85E92902F01380E42911
:1002900002F01080F52902F00D80EF2902F0758040
:1002A000F82900F0AA850368DB0928BF41F0800126
:1002B000632901F09487732901F09987E32902F0FB
:1002C0005184F32902F05684002070471FB53CF09A
:1002D000CEFF9DE8030002F0F7F901F096F902F075
:1002E000D6F90400002000213CF0DCF8401C6060DE
:1002F000002000213CF0ECF8E06003F0C3F81FBDE3
:1003000010B503F037F903F0CBFB10BD03F0BEF9D5
:10031000114603B41CF01CFC03BCFFF7D7FF2DF003
:1003200063FE03F0A5FB03B4FFF7EAFF03BC03F091
:1003300007FC00001EF0040F0CBFEFF30880EFF382
:1003400009800DF0B7B900000246D2E84F0FC2E8AD
:10035000431F03B1F9E77047024652E8000F40EA35
:10036000010042E8000303B1F7E7704710B5024609
:1003700052E8000F20EA010442E8004303B1F7E726
:1003800010BD10B5024652E8000F00EA01048C428D
:1003900003D0BFF32F8F002010BD20EA010442E8F4
:1003A000004303B1EFE710BD10B5024652E8000F5D
:1003B000084203D1BFF32F8F002010BD20EA0104B3
:1003C00042E8004303B1F1E710BD024652E8000FD6
:1003D000411C42E8001303B1F8E7704710B502462C
:1003E000D2E85F0F814202D8BFF32F8F10BD441CAB
:1003F000C2E8534F03B1F3E710BD10B50246D2E88F
:100400005F0F441CA14200D80024C2E8534F03B13F
:10041000F5E710BD024652E8000F411E42E8001306
:1004200003B1F8E77047024652E8000F10B9BFF376
:100430002F8F7047411E42E8001303B1F4E7704765
:100440000246D2E85F0F10B9BFF32F8F7047411EED
:10045000C2E8531F03B1F4E77047024652E8000FA9
:1004600010B9BFF32F8F7047016842E8001303B142
:10047000F4E7704702680A60BFF35F8F50E8002F0F
:100480000B689342F6D140E8001303B1F2E77047DE
:100490000246D2E84F0FC2E8431F03B1F9E77047A5
:1004A000024652E8000F40EA010042E8000303B1AF
:1004B000F7E7704710B5024652E8000F20EA010442
:1004C00042E8004303B1F7E710BD10B5024652E819
:1004D000000F00EA01048C4203D0BFF32F8F0020ED
:1004E00010BD20EA010442E8004303B1EFE710BD6C
:1004F00010B5024652E8000F084203D1BFF32F8F18
:10050000002010BD20EA010442E8004303B1F1E7F6
:1005100010BD024652E8000F411C42E8001303B12F
:10052000F8E7704710B50246D2E85F0F814202D863
:10053000BFF32F8F10BD441CC2E8534F03B1F3E744
:1005400010BD10B50246D2E85F0F441CA14200D88E
:100550000024C2E8534F03B1F5E710BD024652E84C
:10056000000F411E42E8001303B1F8E7704702464E
:1005700052E8000F10B9BFF32F8F7047411E42E8B9
:10058000001303B1F4E770470246D2E85F0F10B9D9
:10059000BFF32F8F7047411EC2E8531F03B1F4E72A
:1005A0007047024652E8000F10B9BFF32F8F704713
:1005B000016842E8001303B1F4E7704702680A607B
:1005C000BFF35F8F50E8002F0B689342F6D140E8ED
:1005D000001303B1F2E770470246D2E84F0FC2E8BA
:1005E000431F03B1F9E77047024652E8000F40EAA3
:1005F000010042E8000303B1F7E7704710B5024677
:1006000052E8000F20EA010442E8004303B1F7E793
:1006100010BD10B5024652E8000F00EA01048C42FA
:1006200003D0BFF32F8F002010BD20EA010442E861
:10063000004303B1EFE710BD10B5024652E8000FCA
:10064000084203D1BFF32F8F002010BD20EA010420
:1006500042E8004303B1F1E710BD024652E8000F43
:10066000411C42E8001303B1F8E7704710B5024699
:10067000D2E85F0F814202D8BFF32F8F10BD441C18
:10068000C2E8534F03B1F3E710BD10B50246D2E8FC
:100690005F0F441CA14200D80024C2E8534F03B1AD
:1006A000F5E710BD024652E8000F411E42E8001374
:1006B00003B1F8E77047024652E8000F10B9BFF3E4
:1006C0002F8F7047411E42E8001303B1F4E77047D3
:1006D0000246D2E85F0F10B9BFF32F8F7047411E5B
:1006E000C2E8531F03B1F4E77047024652E8000F17
:1006F00010B9BFF32F8F7047016842E8001303B1B0
:10070000F4E7704702680A60BFF35F8F50E8002F7C
:100710000B689342F6D140E8001303B1F2E770474B
:100720000246D2E84F0FC2E8431F03B1F9E7704712
:10073000024652E8000F40EA010042E8000303B11C
:10074000F7E7704710B5024652E8000F20EA0104AF
:1007500042E8004303B1F7E710BD10B5024652E886
:10076000000F00EA01048C4203D0BFF32F8F00205A
:1007700010BD20EA010442E8004303B1EFE710BDD9
:1007800010B5024652E8000F084203D1BFF32F8F85
:10079000002010BD20EA010442E8004303B1F1E764
:1007A00010BD024652E8000F411C42E8001303B19D
:1007B000F8E7704710B50246D2E85F0F814202D8D1
:1007C000BFF32F8F10BD441CC2E8534F03B1F3E7B2
:1007D00010BD10B50246D2E85F0F441CA14200D8FC
:1007E0000024C2E8534F03B1F5E710BD024652E8BA
:1007F000000F411E42E8001303B1F8E770470246BC
:1008000052E8000F10B9BFF32F8F7047411E42E826
:10081000001303B1F4E770470246D2E85F0F10B946
:10082000BFF32F8F7047411EC2E8531F03B1F4E797
:100830007047024652E8000F10B9BFF32F8F704780
:10084000016842E8001303B1F4E7704702680A60E8
:10085000BFF35F8F50E8002F0B689342F6D140E85A
:10086000001303B1F2E770470246D2E84F0FC2E827
:10087000431F03B1F9E77047024652E8000F40EA10
:10088000010042E8000303B1F7E7704710B50246E4
:1008900052E8000F20EA010442E8004303B1F7E701
:1008A00010BD10B5024652E8000F00EA01048C4268
:1008B00003D0BFF32F8F002010BD20EA010442E8CF
:1008C000004303B1EFE710BD10B5024652E8000F38
:1008D000084203D1BFF32F8F002010BD20EA01048E
:1008E00042E8004303B1F1E710BD024652E8000FB1
:1008F000411C42E8001303B1F8E7704710B5024607
:10090000D2E85F0F814202D8BFF32F8F10BD441C85
:10091000C2E8534F03B1F3E710BD10B50246D2E869
:100920005F0F441CA14200D80024C2E8534F03B11A
:10093000F5E710BD024652E8000F411E42E80013E1
:1009400003B1F8E77047024652E8000F10B9BFF351
:100950002F8F7047411E42E8001303B1F4E7704740
:100960000246D2E85F0F10B9BFF32F8F7047411EC8
:10097000C2E8531F03B1F4E77047024652E8000F84
:1009800010B9BFF32F8F7047016842E8001303B11D
:10099000F4E7704702680A60BFF35F8F50E8002FEA
:1009A0000B689342F6D140E8001303B1F2E77047B9
:1009B0000B49D1F800C04A685CF8043B1068184441
:1009C00042F8040B8C4528BFA1F1DC0C8A4228BFF9
:1009D000A1F1DC02C1F800C04A6020F0004070477D
:1009E000F4D401201EF0040F0CBFEFF30880EFF3E6
:1009F0000980816911F8021C002932D101B590E803
:100A00000F10E047BDE800508CE80300244B93E84A
:100A10000600914208BF70471A6041B91EF0100FDE
:100A200010D1204B186820F0010018600AE02CE972
:100A3000F00F1EF0100F08BF2CED108A81F822E095
:100A4000C1F838C0906B92F8221061F0FF0E1EF0D2
:100A5000100F08BFB0EC108AB0E8F00F80F30988DF
:100A60007047114A13689942FAD801B552F821C06B
:100A70000FC8E047BDE80050CCF800007047000008
:100A800001B535F0A9FFBDE80140EFF3098CBDE7E2
:100A900001B536F0EFFABDE80140EFF3098CB5E798
:100AA00080C5002034EF00E0A09A0508094880477F
:100AB00009480047FEE7FEE7FEE7FEE7FEE7FEE740
:100AC000FEE7FEE7FEE7FEE704480549054A064B58
:100AD00070470000E55C02088901010888D6012002
:100AE00088F8012088D8012088D801201BF0A4BFF5
:100AF00053EA020C00F069802DE9F04B4FF000063C
:100B0000002B1FBFB3FA83F503FA05F424FA05F6A8
:100B10005E4012BF1643B2FA82F502FA05F4C5F13F
:100B200020051EBF22FA05FC44EA0C04203556EAD3
:100B3000044C4FEA144418BF641C4FF000084FF0F7
:100B40000009904271EB030C39D3002919BFB1FAA7
:100B500081F701FA07F6B0FA80F700FA07F6C7F155
:100B600020071EBF20FA07FC46EA0C062037B6FB1A
:100B7000F4FCA7EB0507103F07F01F0BCBF1200695
:100B80000CFA0BFB2CFA06F644BFB3460026202FC6
:100B9000A4BF5E464FF0000B5BEA060C08BF4FF0A7
:100BA000010B19EB0B09ABFB027C48EB0608C01BE1
:100BB00006FB02CC0BFB03CC71EB0C01C1E70B462F
:100BC000024641464846BDE8F08B13B54FF00000A1
:100BD0004FF00001AFF30080BDE81C40704710B536
:100BE000044600F0A1FF0068005DC00602D504F1D4
:100BF000200010BD204610BD7CB51D4616460C00D9
:100C0000009001D02044401E074B7B442A46694691
:100C10000190304601F0B9FA05461CB10020694642
:100C200001F0C6FA28467CBDAD1500000FB404499A
:100C300010B503AA029802F06DFD10BC5DF814FB1C
:100C4000DCD501200FB41CB5084B06AA7B446946CD
:100C50000090059801F099FA04460020694601F0D9
:100C6000A7FA20461CBC5DF814FB000061150000CB
:100C700070B5044685690068C10601D5302600E0DC
:100C80002026C00707D070BDD4E901213046904727
:100C9000206A401C20626D1EF6D570BD70B50446FA
:100CA00085690078C00707D170BDD4E901212020F3
:100CB0009047206A401C20626D1EF6D570BD70B54D
:100CC0000C460546012A05D02878800600D5EA6939
:100CD000002302E0012305E05B1C934202D2E05CAA
:100CE0000028F9D1A869E618C01AA861286A184432
:100CF00028622846FFF7BCFF04E0D5E9012114F87B
:100D0000010B9047B442F8D32846FFF7C7FF70BDE8
:100D10002DE9F0410646002410687529314616A5D4
:100D200010D000F09EFF002802DA404213A507E031
:100D300031688A0701D512A502E0490704D511A53B
:100D4000012401E000F096FF00210A2206F12407A9
:100D500009E0B0FBF2FCB0FBF2F302FB1C00303008
:100D600078541846491C0028F3D123462A463046B9
:100D7000BDE8F04100F087BF000000002D0000003A
:100D80002B00000020000000F0B40D46018809058A
:100D900002D5214C7C4402E01F4C7C440E340021DF
:100DA00000F1240608E002F00F071209E75D42EAAD
:100DB00003721B097754491C52EA0307F3D10278E6
:100DC0000023120704D5702D06D009B10223113477
:100DD0002246F0BC00F057BF01231034F8E770B58D
:100DE00004460D462146106800F044FF024629469D
:100DF0002046BDE870400023C6E7D21D22F007035D
:100E0000D3E90023C0E70368126843F020030360BE
:100E10000823C3610023B7E7EC9304002DE9F05FDA
:100E2000894604464FF0000ADFF874B1FB44C0F86D
:100E300020A02046E1688847002874D0252806D0E5
:100E4000D4E901219047206A401C2062F1E7002686
:100E50005F462046E16888472028054607DB312D9C
:100E600005D2781910F8200C08B10643F1E7B00755
:100E700001D526F00406C4F81CA00027C4F818A069
:100E80002A2D09D028461BF031FE38B304EB870821
:100E9000303DC8F8185019E059F8041B204604EBFF
:100EA00087029161E1688847012F054618D1E06902
:100EB000002820DA26F020061DE0D8F8180000EB04
:100EC000800005EB40003038C8F818002046E16883
:100ED000884705461BF00AFE0028EED1012F0AD0F4
:100EE0002E2D08D12046E16888477F1C0546022F39
:100EF00046F02006C4DBA069002803DA404246F031
:100F00000106A061F00701D026F010066C2D0BD071
:100F1000682D09D04C2D39D06A2D35D0742D35D09F
:100F20007A2D33D016E038E0E1682F462046884716
:100F3000B842054609D16C2F26D04FF48060E16895
:100F4000064320468847054604E06C2F1AD04FF42C
:100F5000807006430DB3A5F14100192802D8203551
:100F600046F400664A462946204626604E46FFF76C
:100F700065F980B101280BD0F61D26F0070000F1BD
:100F8000080956E74020E4E78020D8E70020D6E7AC
:100F900006F104094DE7284652E7206ABDE8F09FB4
:100FA0007C9304000FB400B58DB010A90990009196
:100FB0000B904FF0FF300A9000200C9006487844C8
:100FC0000690064878446A4607900F9909A801F0F0
:100FD000FBF90DB05DF814FB271400003F1400006E
:100FE0002DE9FF5F1D464FF0FF3B91464FF0000893
:100FF0005F46D5E90146A96901987F1C8847296A9F
:10100000824688470028F6D1BAF1FF3F0CD0002E67
:1010100024F4C06419DD600614D5BAF12B0F09D091
:10102000BAF12D0F0ED103E0584604B0BDE8F09F91
:1010300044F48064A96901987F1C8847761E824623
:10104000002E02DDBAF1300F03D0B9F1000F26D027
:1010500032E0A969761E01987F1C44F40074884729
:10106000002E824605DDBAF1780F06D0BAF1580F8E
:1010700003D0B9F1000F10D01EE0B9F1000F02D07B
:10108000B9F1100F18D1A969761E01987F1C24F4BC
:10109000007488478246102002E0082000E00A2001
:1010A000814609E0A96908FB0908761E01987F1CA2
:1010B00044F4007488478246002E05DD49465046B8
:1010C00001F06EF90028EDDAE96901988847A0057A
:1010D00002D46FF00100A8E7E00725D1600613D520
:1010E000600502D5C8F1000000E0404629680A1DED
:1010F0002A600968220501D5087015E0220701D58C
:10110000088011E008600FE02868011D2960006870
:10111000210502D580F8008006E0210702D5A0F85D
:10112000008001E0C0F8008038467EE72DE9FF5FCF
:101130004FF000089946144646469169D2E901A746
:10114000DDF838B001988847054659EA0B0005D00C
:1011500009E0A1690198761C88470546216A28465E
:1011600088470028F5D1681C03D05FEACA7005D013
:1011700015E04FF0FF3004B0BDE8F09F2068011D7E
:101180002160D0F800800AE05FEACA7001D108F857
:10119000015BA169761C01987F1E88470546002FD8
:1011A0001ADD681C18D0B9F1000F0DD0E81705EB57
:1011B000D060421120F01F0059F822102A1A012095
:1011C00090400142E0D107E0BBF1000FDCD128469E
:1011D000216A88470028D7D0E16901988847BBF188
:1011E000000F07D1002E05DD5FEACA7002D1002191
:1011F00088F80010A068B84203DDBBF1000F03D0EF
:1012000017B16FF00100B6E73046B4E770B5064697
:10121000FFF76CFC0468054630460A22002101F005
:1012200003F92C6070BD00002DE9F041044616461C
:101230000D464769007B80072ED038461BF0B6FC70
:1012400050BB3EB3012E02D0022E25D104E0204631
:1012500001F022F905441DE038461BF092FCE168DC
:10126000002841F01001E16005DA204601F036F96E
:101270000120BDE8F081C9030BD56268E16A9142A3
:1012800000D81146A26911442269891A814200DD01
:1012900008460544002D01DA0220EAE7E16A6068A9
:1012A000E268814206D29103E06203D522F4003164
:1012B00041F01002A6690027AE4213DCE16A8142C8
:1012C00001D90B4600E0034603EB060C2369ACEBA7
:1012D000030CAC4506DD814201D98C4600E0844612
:1012E0009C4505D1A760276042F02000A5620DE073
:1012F000AD1BE669AE1B8142A66000D90846C01A44
:10130000281A20605819606022F020000349084024
:10131000E060002084F84870ABE70000BFCFD7FF43
:101320002DE9F04704464FF000094FF0FF37C5683C
:10133000D4E90486A80707D0204601F003F9304617
:101340001BF00AFC002802DA3846BDE8F0872805C1
:1013500002D5404600F070FC4C21204600F099FA7E
:10136000206D20F0010020654846EEE770B5054687
:101370000A4E30461BF0C1FB05F14C0420461BF021
:10138000BCFB2846FFF7CCFF054620461BF0D7FBE9
:1013900030461BF0D4FB284670BD00005CC5002021
:1013A0002DE9F04116460F46054600F14C04204653
:1013B0001BF0A3FB324639462846FFF735FF0546AA
:1013C00020461BF0BCFB2846BDE8F08170B5044602
:1013D00000F14C0528461BF090FBE06844F2C00188
:1013E0008843E06028461BF0AAFB70BD70B5044638
:1013F00000F14C0528461BF080FB207B00F08004A8
:1014000028461BF09CFB204670BD00002DE9F041F2
:10141000044600F14C0738461BF06FFBE06881077B
:1014200012D0800601D5A66A04E0A169606808446C
:101430002169461A204601F085F80022054631460A
:101440002046FFF7F1FE00E0002538461BF077FB51
:101450002846BDE8F0812DE9F04118B1BDE8F04122
:10146000FFF7D4BF0B4E002530461BF046FB0A4C5D
:101470006F1E07E02046FFF7C9FF00B13D46206D13
:1014800020F00104002CF5D130461BF058FB284613
:10149000DFE700005CC5002088D501202DE9F0477A
:1014A00016468846814602F14C0738461BF025FB5C
:1014B0003046FFF735FF18F8010B61280AD0722873
:1014C00002D077283FD102E00125002405E0022563
:1014D000042402E0082448F2020518F8010B2B2826
:1014E00006D0622809D018F8010C74280AD00BE045
:1014F00045F0030544F00204EFE745F0040544F02D
:101500000104EAE744F01004484621461BF060FB62
:10151000411C18D00021316171604FF40071F560F9
:10152000F1617061200704D5304602220021FFF7E7
:101530007BFE306D40F00100306538461BF0FFFA4D
:101540003046BDE8F0870026F7E72DE9F041154663
:101550000E460746204C20461BF0CFFA2A4631465D
:101560003846FFF79BFF054620461BF0E8FA284661
:10157000BDE8F0812DE9F0410E468046164D284623
:101580001BF0BBFA154C206DC10704D0410804D0F4
:1015900020F00104F7E7224612E0542000F011FB8E
:1015A000070017D0206D47F0010108435421206542
:1015B000384600F06EF907F14C001BF0AFFA3A46DE
:1015C00031464046FFF76AFF044628461BF0B7FA4B
:1015D0002046CDE70024F8E75CC5002088D501202F
:1015E0000B4910B5A1F17C020A4CC2E93712372130
:1015F00006E000EB104342F82130074B00FB0340AC
:101600000B1EA1F10101F4DC10BD0120E8E7000090
:1016100094D40120E119D666CD0D010030B5054600
:101620000B462A4613F8014B12F8010B08B1A042F1
:10163000F8D01CB1002802D06D1CF1E7284630BD5F
:1016400040EA010310B59B070FD1042A0DD310C83F
:1016500008C9121F9C42F8D020BA19BA884201D991
:10166000012010BD4FF0FF3010BD1AB1D30703D0D9
:10167000521C07E0002010BD10F8013B11F8014B8F
:101680001B1B07D110F8013B11F8014B1B1B01D1AB
:10169000921EF1D1184610BD40EA0103024630B552
:1016A0009B0710D14FF0013400E008C208C91D1B90
:1016B0009D4315EAC41FF8D013F0FF0102F8011B87
:1016C0000DD01B0AF8E711F8013B002B02F8013B93
:1016D00005D011F8013B002B02F8013BF3D130BDDE
:1016E0002DE9F041054690460E460020044600E0F4
:1016F000641C44450BD2285DFFF771FA0746305D44
:10170000FFF76DFA381A02D1295D0029F0D1BDE842
:10171000F08110B5431C02E010F8011B71B1810784
:10172000FAD14FF0013202C88C1A8C4314EAC2116C
:10173000F9D0C01A0A0603D0C01E10BDC01A10BDD1
:101740000A0401D0801E10BD0902FCD0401E10BD4D
:10175000032A40F2308010F0030C00F0158011F8DD
:10176000013BBCF1020F624498BF11F801CB00F8B5
:10177000013B38BF11F8013BA2F1040298BF00F809
:1017800001CB38BF00F8013B11F0030300F02580C6
:10179000083AC0F0088051F8043B083A51F804CBED
:1017A000A0E80810F5E7121D5CBF51F8043B40F8B3
:1017B000043BAFF30080D20724BF11F8013B11F8BE
:1017C00001CB48BF11F8012B24BF00F8013B00F802
:1017D00001CB48BF00F8012B704710B5203AC0F08C
:1017E0000B80B1E81850203AA0E81850B1E8185022
:1017F000A0E81850BFF4F5AF5FEA027C24BFB1E85F
:101800001850A0E8185044BF18C918C0BDE81040CF
:101810005FEA827C24BF51F8043B40F8043B08BFD8
:101820007047D20728BF31F8023B48BF11F8012B9F
:1018300028BF20F8023B48BF00F8012B704702F098
:10184000FF0343EA032242EA024200F002B84FF0EB
:1018500000020429C0F0128010F0030C00F01B807D
:10186000CCF1040CBCF1020F18BF00F8012BA8BF8B
:1018700020F8022BA1EB0C0100F00DB85FEAC17C4F
:1018800024BF00F8012B00F8012B48BF00F8012B02
:1018900070474FF0000200B5134694469646203933
:1018A00022BFA0E80C50A0E80C50B1F12001BFF419
:1018B000F7AF090728BFA0E80C5048BF0CC05DF87F
:1018C00004EB890028BF40F8042B08BF704748BFCD
:1018D00020F8022B11F0804F18BF00F8012B704741
:1018E0004FF0013C50F8042B51F8043B9A4221D1AF
:1018F000A2EB0C03934313EACC1317D150F8042B3B
:1019000051F8043B9A4215D1A2EB0C03934313EA1E
:10191000CC130BD150F8042B51F8043B9A4209D157
:10192000A2EB0C03934313EACC13DBD04FF000007F
:10193000704700BFD01A01BAB1FA81F101F0180165
:1019400022FA01F0CB40C1F12001DBB2C0B2C01AD3
:101950002CFA01F3D11A914311EAC311E6D1704771
:10196000014900F033BE0000FCD4012010B503682B
:101970001C1404EB21449BB289B2194494FBF2F38A
:1019800002FB134394FBF2F401EB034393FBF2F1EC
:1019900002FB113193FBF2F301E05B1E11440029BD
:1019A000FBDB016003EB044010BDF0B504464FF0D3
:1019B000FF3585B00068049060680290A0680390CD
:1019C000E068019020690090666906F18040B0F1FE
:1019D000004F7CD83C22002104A8FFF7C7FF3C221F
:1019E000014602A8FFF7C2FF1822014603A8FFF72D
:1019F000BDFF411E40F2B55201A8FFF7B7FF0C2210
:101A0000074668460021FFF7B1FF414B00EB870016
:101A1000304400267B4411E0511A01910099491C81
:101A20000229009102D00C2908D105E0810705D0D8
:101A30000199491C019101E0401C00960099019A0E
:101A4000595C9142E8DD0099012906D11C2A04D194
:101A5000810702D00221CDE90016A0F146018B29B1
:101A60003CD2DDE90061002202E09F5C521C394457
:101A7000B242FADB012E02DD820700D0491E40F29D
:101A8000B55340F26D16C21700EB927292105A4392
:101A900000F0030303FB062283070A4400D1521E11
:101AA000039E02EB4203049F06EBC303029EC3EBBB
:101AB000031306EB8303174E33441E149BB2C6EB8D
:101AC0000616C3EB0313B60007EB830300E005E043
:101AD00006EB134666F31F43360C02D0284605B0CA
:101AE000F0BD80C4029E40C4039E40C4019E761C8B
:101AF00044F80C6B009E44E902600720521C92FBE4
:101B0000F0F600FB162084E823001846E7E7000003
:101B1000C8880400A039CEFD7047704770470000A8
:101B20000048704728D5012010B500F0B0FD001D19
:101B300010BD00BF71A903000B3020F007007047F3
:101B40002DE9F04117460E460446FFF7F5FFA04287
:101B5000054633D9002F1CBF06F10C001AF0CDFF4B
:101B600030467468F4B12168A94217D305F1080220
:101B700091423CBF6168416007D3626861194A6065
:101B80002268521B0A6041602560002F1CBF06F1CD
:101B90000C001AF0D4FF201DBDE8F08120466468D7
:101BA000002CE0D12946304600F07AFD0028D7D13C
:101BB000002F1CBF06F10C001AF0C1FF0020BDE889
:101BC000F08110B5044600F05DFD01682046BDE8D7
:101BD00010400122B4E770B516460D46041F0028D8
:101BE00008BF70BD002E1CBF05F10C001AF085FF68
:101BF0002B465868002818BFA04238BF0346F8D3C8
:101C00001968CA18A24218BF5C6003D122681C463A
:101C10001144196021680A19824218BF606004D11A
:101C200042686260006808442060002E1CBF05F115
:101C30000C001AF084FF70BD10B5044600F022FDC0
:101C400001682046BDE810400122C4E710B5FEF748
:101C50004DFF006810BD10B50446FEF747FF046055
:101C600010BD09684A0501D540B27047C905FCD5C9
:101C700000B2704709684A0501D5C0B27047C9056E
:101C8000FCD580B270472DE9F0470D469946924643
:101C9000044600F124080168880604D5E06921F0B3
:101CA0001001216000E00120A84201DD471B00E097
:101CB0000027A1697A1902EB0900081AA0612078AF
:101CC000C00602D42046FEF7D3FF002608E0D4E980
:101CD00001211AF806009047206A401C761C2062F9
:101CE0004E45F4DB2078C0060AD52046FEF7C0FF3B
:101CF00006E0D4E9012130209047206A401C206290
:101D0000381EA7F10107F4DC07E0D4E9012118F837
:101D100005009047206A401C2062281EA5F101059D
:101D2000F3DC2046FEF7BAFF2078000602D5022039
:101D3000BDE8F0870120FBE711680268006A5305DF
:101D400001D508700AE0D30501D5088006E0130626
:101D500003D5C217C1E9000200E008600120704706
:101D600070472DE9FF4F0C461E464FF0FF378BB0F2
:101D7000D2E90001DDF860800A908A46C1F30A5575
:101D800005B93D46002108464FF00000BAF1000FAA
:101D900000F4400005DA00EB80004FF4400101EA56
:101DA00050004FEA9059B9F1010F00DDB9460A9889
:101DB00050EA4A000ED044F61050A5F2FF354543D4
:101DC0002F14B8F1000F1ED07542291E1EDDC9F177
:101DD00000021CE0B8F1010F4FF0000001D03021EB
:101DE00003E0F24305E02154401CB042FBDB3046E7
:101DF0000022002121540B99C1F80880C1E900207C
:101E00000FB0BDE8F08FBD1B6D1CDEE74A4600DA5F
:101E1000694206A801F0BCF806AB93E8070003ABE3
:101E200083E8070050460A9901F0B5FE8DE80700E7
:101E3000A0F500501F3800900398002D0ADD42F2F3
:101E40001F014A460844002303A90390684602F094
:101E50001EF909E0A0F500504A461F38002303A9E7
:101E60000390684602F028F98DE807000004000C92
:101E700003D04FF0FF30410800E01046B8F1000FEA
:101E800003D00022009215461EE0751E05D400F016
:101E900053FC303262556D1EF9D5B346012208431A
:101EA00002D000227F1C04E02078302801D10022DB
:101EB0007F1E002A099784D01DE0112D07DA00F05B
:101EC0003BFC303262556D1C50EA0102F5D10843EB
:101ED00002D00098C8B10EE00021681E05E0235C26
:101EE000625C63542254401E491C8142F7DBAB46BE
:101EF000A81B401E0990002004F80B000B98099ABB
:101F0000C0F80880C0E9002B7AE711264FF00008DE
:101F100057E72DE9F04F88460446D21D22F007010D
:101F200091B0D1E90001CDE90A0119F037F8024674
:101F30000B98C00F01D02D2007E02068810701D544
:101F40002B2002E0202101EAC000032A099001D0E1
:101F5000072A05DB03464146204600F0B9FD0BE1A8
:101F60002078800601D5E06900E00620B8F1650F11
:101F7000814606D0B8F1660F18D0B8F1670F70D15E
:101F800031E00020B9F1110F009001DB112301E0D5
:101F900009F101030AAA01A90CA8FFF7E2FEDDE995
:101FA0000C70002609F10105834647E001204B46ED
:101FB00000904FF000470AAA01A90CA8FFF7D1FE34
:101FC000DDE90DB00C995D46002610B909F101005C
:101FD0000D18B9EB050003D4C0F1FF3609F1010576
:101FE000A5EB09002BE0B9F1010F01DA4FF001096F
:101FF0000020B9F1110F0090484601DD112300E0E7
:1020000003460AAA01A90CA8FFF7ABFEDDE90C7094
:102010004D4600268346207800070AD4AB4500DAF7
:102020005D4601A8012D04DD411911F8011C30297C
:1020300007D04F4502DA17F1040F04DA0120824677
:102040000FE06D1EEEE7002F02DCED1B3E4403E0C7
:10205000781CA84200DD7D1CB81B00F1010A4FF07E
:1020600000472078000703D4AA4501DB4FF0FF3A70
:102070000021B7F1004F0DF143088DF8431024D033
:1020800002202B23002F01DA7F422D230A21021E7A
:10209000A0F1010000DC5FB197FBF1FC97FBF1F2CE
:1020A00001FB1C7C17460CF1300C08F801CDEEE763
:1020B000A8F1010003702188090501D5452100E040
:1020C0006521A0F1010800F8011C09980FA9A1EBF6
:1020D0000807FF1D00B10120411901EBEA70A16959
:1020E0003844081A401EA0612078C00602D4204659
:1020F000FEF7BEFD099828B1D4E901219047206A76
:10210000401C20622078C00622D52046FEF7B0FD94
:102110001EE0002E04DBB34502DD01A8805D00E077
:102120003020D4E901219047206A401C2062761CAF
:10213000AAF101005FEA000A0AD100F0A8FAC0681B
:102140000168405CD4E901219047206A401C20626C
:10215000281EA5F10105DCDC07E0D4E9012118F80F
:10216000010B9047206A401C2062381EA7F101072E
:10217000F3DC2046FEF792FD032011B041E600009B
:1021800001694A1C02610878704700B58FB0CDE93B
:1021900001310021059105497944CDE9031011462B
:1021A0006846FEF73BFE0FB000BD0000E5FFFFFFF5
:1021B0000A6802F8010B0A607047D1E900239A42CD
:1021C00002D2531C0B601070704710B5436913B1F5
:1021D000AFF3008001E0FEF772FD012010BD127820
:1021E00000F124010A7000224A700122EDE7116813
:1021F0004FF0FF32E9E700002DE9FF5F15468A4600
:102200000446DFF8AC80F8440027D8E900103E46C9
:10221000CDE9001010E03AF816106A4602A801F065
:1022200015FA411C07D02178890603D5E2693918CF
:1022300091420DD80744761C2078800602D5E069CB
:10224000B84205DDAE42E6DB3AF816000028E2D1DE
:10225000A069C01BA0612046FEF70AFDD8E9001066
:10226000CDE90010002017E03AF818106A4602A8DD
:1022700001F0ECF9B0F1FF3F81460BD000250DF1E4
:10228000080B05E0D4E901211BF8050090476D1CFF
:102290004D45F7D308F10100B0428046E4DB206AE7
:1022A000384420622046FEF7F9FCBDE8FF9F00009D
:1022B000CE8004002DE9F0418046D21D22F00702B5
:1022C0000025D2E90002F52915A614D0011E72F1ED
:1022D000000106DA0023D0EB030063EB020211A633
:1022E00008E0D8F800108B0701D50FA602E04907D7
:1022F00001D50EA601251146002408F1240704E0AB
:1023000000F01AFA30323A55641C50EA0102F7D153
:102310002B46324621464046BDE8F041FFF7B3BCAC
:10232000000000002D0000002B0000002000000035
:1023300030B4002100F1240408E002F00705D208BF
:10234000303542EA4372DB086554491C52EA030502
:10235000F3D10468002310A2250707D5A40600D4F2
:1023600021B1C46901230DA2641EC46130BCFFF712
:102370008ABC10B5044621461068FFF77BFC024674
:102380002046BDE810400023D2E7D21D22F007010D
:10239000D1E90023CCE7000000000000300000007D
:1023A0003A2800D2303820F02002412A01D3A2F18D
:1023B0003700884201D34FF0FF3070470268114464
:1023C0001378016018467047D1600549794451611E
:1023D00004497944116200211161114600F0CEBB1D
:1023E000EDFFFFFFED030000426842B1016811F804
:1023F000013B23B1521EC0E900121846704701216B
:10240000C160881E704742685AB1C368016843B909
:1024100083688B4205D0491E521CC0E9001200207F
:1024200070474FF0FF3070472DE9F04791460F4657
:1024300080460446002614F8015B2DB1FFF774FBBB
:102440000068405DC007F6D12B2D02D02D2D18D08D
:10245000641E4A463946204600F04AFD27B13968D5
:10246000A14201D1C7F800804FF0020471050BD5DD
:102470004042002803DDFEF739FB0460A007BDE8F9
:10248000F08746F48066E4E70028F8DAFEF72EFBD2
:1024900004606FF00040F2E710B50146C268900793
:1024A00003D0900607D5886A0AE0FEF71FFB0121DA
:1024B0000160881E10BD8B69486818440B69C01AFA
:1024C00091F848301BB191F84910401A10BD110322
:1024D000FCD50028FADD401E10BD0000C16821F4C3
:1024E000001141F08001C1600021816001607047EE
:1024F0002DE9F047814614460E464FF0FF3832482A
:10250000D5685769054209D03846A1691AF0B5FB6C
:10251000002811DB2C48C0430540E5602B463246BD
:10252000494638461AF0C3FBA16920F00042B21AAE
:1025300011440028A16103D02046FFF7CFFF404699
:10254000BDE8F08770B504460569C06A61688842D5
:1025500000D80846E16821F42011E160C90312D5D2
:10256000A84208D02246411B2846FFF7C1FF10B100
:102570004FF0FF3070BD0020E562C4E90150E06813
:1025800020F48030E060002070BD10B50446C068C3
:1025900020F02000E060A16AA06988420DD02046AA
:1025A000FFF7D0FFE06820F4405040F01000E060FA
:1025B000A06AA0612069E062606044F24001E068C6
:1025C0008843E06010BD00001000020070B50C46AA
:1025D000016800204A1C3ED03C22B1FBF2F302FB12
:1025E0001313B1FBF2F12360B1FBF2F302FB1313FF
:1025F000B1FBF2F118226360B1FBF2F302FB13139B
:10260000B1FBF2F146F2E0320A440721A360B2FBCB
:10261000F1F301FB132140F2B553B2FBF3F5A161D5
:10262000B2FBF3F103FB15228900B2F5B77F08D3A3
:102630009B10521EB2FBF3F52944B2FBF3F503FBEA
:1026400015220F4BE261616189077B440CD03B2A64
:102650000AD3521C08E02C212046FFF71AF901206A
:10266000E0600AE0521A401C195C9142FAD9521CEF
:10267000C4E903204FF0FF302062204670BD000007
:10268000927C040010B5FFF74BFA083010BD10B56E
:10269000FFF746FA203010BD70477047704770470B
:1026A00038B504460A4600206946AFF3008000288A
:1026B00008BF38BD02460099204601F00CF8012001
:1026C00038BD012001F0E4B9F8B5AFF3008005464C
:1026D00000200C46102000BF0646A819A0420DD9C4
:1026E000324669460020AFF30080070008BF01F0C2
:1026F000CFF90098A04218BF0546C419FFF7C2FFE2
:1027000005600746F01D20F007004619284600F036
:102710000AF8B44208BFF8BDA21B31463868BDE8CC
:10272000F84000F0D8BF00210160C0E901100C3072
:102730001AF0F4B91020704730B5B0F10A024FEA30
:10274000900E71F100034EEA817EB0EB0E0061EB5A
:1027500091014FEA101E4EEA017E10EB0E0041EB94
:1027600011114FEA102E4EEA016E10EB0E0041EBF4
:1027700011214FEA104E4EEA014E10EB0E0041EBD4
:102780001141401841F100014FEAD00040EA417088
:102790004FEAD10110EB80054FEA810444EA9074BE
:1027A00044EB01046D1944EB0404521BA3414FF0A8
:1027B000000348BF0A3200D530BD401C41F1000182
:1027C00030BD10B50446FFF7AFF90068005D00F0BA
:1027D000010010BD2DE9F04F04460D46D21D22F038
:1027E000070089B0D0E900974846394618F0D6FB73
:1027F0000246F80F01D02D2307E02068810701D59C
:102800002B2302E0202101EAC0038DF820300BB118
:10281000012000E00020032A824601D0072A04DBC1
:102820002946204600F054F93FE12078800601D483
:102830000D2500E0E569C7F30A560D2D49DA0021A0
:102840004FEA175B08464FF00000002F00F44000ED
:1028500007DA00EB80004FF4400100EBD07001EA92
:1028600060008115012901DD4FF0FF3100224FEAA0
:10287000850CBCF1180F06D31346ACF118004FF0CD
:102880008052C24003E04FF4801323FA0CF30CF1A2
:102890000C0CBCF1200F04D3ACF1200C09FA0CF0A5
:1028A00001E007FA0CF000294FF0004801DD18B9EB
:1028B0000FE00ED140450CD319EB02095F4121B95D
:1028C000404502D19F4329EA0209BBEB175F00D0C4
:1028D000761C2088000502D57B48784402E07A48BF
:1028E0007844193808AA302302F80A30037C0AF128
:1028F0000101002E0AF1020A53546A4602DC4FF02D
:10290000300101E04FF031014FF001088DF8001067
:1029100002D0A6F2FF3603E059EA470100D06B4E21
:10292000002D02DC2178090704D54FF002082E2182
:102930008DF80110C44600210BE0C7F303433F01AB
:10294000C35C491C6D1E02F80830052908F1010816
:1029500001DA002DF1DC00210CE000EB1973491CB9
:102960001B786D1E082902F808304FEA091908F192
:10297000010801DA002DF0DC21688B0602D516E093
:10298000A8F10108E04505DD02EB080313F8013C5E
:10299000302BF5D0B8F1000F09DD02EB080313F876
:1029A000013C2E2B03D1090701D4A8F10108002D09
:1029B00005DD3E2102F808106D1E08F10108407C7B
:1029C000002E02F8080008F1010804DA2D207642F2
:1029D00002F8080002E02B2002F808000A214FF458
:1029E0007A70864208F101080BDB96FBF0F3303376
:1029F00002F8083096FBF0F308F1010800FB1366BB
:102A000001E0642E0CDB642096FBF0F3303302F817
:102A1000083096FBF0F308F1010800FB136601E0B3
:102A20000A2E06DB96FBF1F0303002F8080008F1C0
:102A3000010896FBF1F001FB1060303002F808004D
:102A4000A16908F1010808EB050202EB0A00081A67
:102A5000A0612078C00602D42046FEF709F9216A59
:102A600008AE01EB0A00206204E0D4E9012116F867
:102A7000010B9047BAF1010AF7D22078C00602D5BF
:102A80002046FEF7F5F86E4609E016F8010B3E28E1
:102A90000FD0D4E901219047206A401C2062B8F190
:102AA0000108F2D22046FEF7F9F809B00320BDE88C
:102AB000F08F206A2844206203E0D4E9012130200D
:102AC00090476D1EEBD3F8E72D7A040002FCFFFF60
:102AD0002DE9F0411F46044603260168072A01F448
:102AE000006004DB08B116A505E016A503E008B1F7
:102AF00015A500E015A521F010002060A069C01EFA
:102B0000A0610FB1401EA0612046FEF7B1F84FB1A1
:102B1000D4E9012138469047206A401C2062C01C3D
:102B2000206206E0206AFAE7D4E9012115F8010BDA
:102B30009047761EF8D22046FEF7B0F8BDE8F08147
:102B40004E414E006E616E00494E4600696E660051
:102B500010B5436913B1AFF3008001E0FFF74CFB00
:102B6000012010BD128800F1240182840022C28459
:102B70000122EDE711684FF0FF32E9E72DE9F34F4D
:102B80004FF0000A0C4656468DB001200C9001F122
:102B90000C000B9062690B9801219047051E2DD007
:102BA000252D2CD0216A8847C0B162690B9801217C
:102BB0009047216A88470028F7D16269411E0B9827
:102BC000904700E0761CA1690D988847216A8847E4
:102BD0000028F7D1E1690D988847DBE7A1690D98D6
:102BE0008847A842074601D1761CD3E7E1690D98D2
:102BF00088477F1C02D1BAF1000F6FD06BE1626988
:102C00000B9800273D46394690472A2804D162692F
:102C10000B98012190470125DFF8D08262690B985B
:102C200001219047A0F130010A290AD24745E5DC8D
:102C300007EB870100EB4107303FDFD445F010057B
:102C4000ECE7E90601D46FF000476C280AD04C2865
:102C500014D0682815D06A280DD074281CD07A2882
:102C60001AD01DE062690B98012190476C2802D0B0
:102C700045F0040514E045F002050DE045F020059F
:102C80000AE062690B9801219047682802D045F05C
:102C9000080505E045F4006562690B98012190473D
:102CA000C4E9015765283DD019DC58287AD00CDCDE
:102CB000452837D004DC252826D041289ED131E094
:102CC00046282FD0472899D12CE05B2877D061285F
:102CD00028D063287CD0642823D15AE0F6E06F28FE
:102CE00048D008DC66281DD067281BD0692821D071
:102CF0006E2816D127E0702845D0732868D0752833
:102D000047D078280DD14DE0A1690D988847252836
:102D100005463FF469AFE1690D9888476D1C3FF4A3
:102D20006AAFD8E00D9923466A466FF00100AFF311
:102D30000080C5E045F0400023464FF0000260608F
:102D4000A80736D43EE0E8077FF447AF2068011DAE
:102D500021600068290501D506701BE7290701D508
:102D6000068017E7A90703D5F117C0E9006111E74D
:102D700006600FE745F0400023464FF00802606010
:102D8000A80716D41EE040F60E0125EA0100606097
:102D900016E045F0400023464FF00A026060A807A5
:102DA00007D40FE045F040006060A80708D523462F
:102DB00010220D996FF00100AFF3008080E007E072
:102DC000102223460D996FF00100FEF709F977E014
:102DD0004FF0000963284F46C8464B46CB4602D009
:102DE0005B2806D038E0E80601D40120A060012766
:102DF00032E06269D4F80CB00B98012190475E284C
:102E000007D14FF0010949466269D4F80CB00B981C
:102E10009047216939B900210A4603AB43F82120C4
:102E2000491C0829FADBD8B3216949B308F1010824
:102E300062690B98012190475D28F4D1B9F1000F28
:102E400009D0002003A951F82020D24341F82020C6
:102E5000401C0828F7DB03AB2069002820794FEAE3
:102E600040701ED05B462246CDF80080CDE9019728
:102E70000D9900286FF0010020DAAFF300801FE009
:102E8000C11703AA00EBD1614B1121F01F0102EB26
:102E90008302411A13680120884003431360C7E787
:102EA00019E00D99224600286FF00100009702DA20
:102EB000AFF3008004E0FEF739F901E0AFF30080E2
:102EC00000280ADA401C06D10C9820B14FF0FF30E0
:102ED0000FB0BDE8F08F5046FAE7E90701D10AF1DB
:102EE000010A064400200C9054E60000CCCCCC0C27
:102EF0002DE9F05F824615468B4600270AF1010452
:102F0000B9460078302801D09DB113E014F8010BC8
:102F10000127782803D0582801D045B10AE00DB127
:102F2000102D07D1002714F8010B102502E0082509
:102F300000E00A250026B0460EE005FB080005FB70
:102F400006F101271FFA80F801EB1046B6F5803F25
:102F500000D3B94614F8010B2946FFF721FA0028DF
:102F6000EBDABBF1000F05D00FB1641E00E0544650
:102F7000CBF80040B9F1000F06D0FDF7B7FD0221F4
:102F80000160C81EBDE8F09F48EA0640FAE700006D
:102F90002DE9F047814616468AB0354878440DC879
:102FA0008DE80D0032487844801C03AC0DC884E8DD
:102FB0000D0041F69B300844372190FBF1F290FB65
:102FC000F1F5A5F1800501FB12041B3C02D564421A
:102FD000012000E00020DFF898A080460027FA4496
:102FE000AAF1BE0A0EE0E0070AD03246684607EBB7
:102FF000470101230AEB810101F05EF88DE807002B
:1030000064107F1C002CEED1194F7F44AE3F19E0B5
:10301000E80715D007EB04100DF1180A90E80E0030
:103020008AE80E00C068F04201D198190890324633
:10303000012306A903A801F03FF803AB83E80700CA
:103040006D10641C002DE3D14FF001033246694638
:10305000B8F1000F03A802D001F019F801E001F067
:103060002BF8C9E90001C9F808200AB0BDE8F087CB
:10307000FC73040070B50D4601461446D3685069D0
:103080002A4619F0DBFD002807DA411C07D0E16869
:1030900020F0004041F48041E160281A70BD2046D4
:1030A000FFF71CFA4FF0FF3070BDC16800220260CC
:1030B00021F4805141F0400111F4C06FC16001D092
:1030C0008260704702694168891AC269891A816001
:1030D00070472DE9F0470446C06840F48000E06086
:1030E000010312D520F40020E060810606D4E26AD4
:1030F00061688A4200D80A46511A216040F40010E3
:10310000E06094F82500BDE8F08720F40010E0604E
:10311000800602D52046FFF738FAE06842F28101C6
:103120004FF0FF390140012903D02046FFF7D6F9BF
:10313000B6E02168002600290ADAC94340F480502D
:103140002160C4E902606068411C61600078DAE7D0
:1031500044F2400108420CD020F4A04040F040006E
:103160002660E06021696068401AE169401AA06049
:1031700096E0216991B9C00310D4E069FEF721FD02
:103180002061B0B1E06840F4006010F4407FE0607E
:1031900002D140F48070E06020696060E068D4F89B
:1031A00014A0C1061AD5C0030ED52046FFF7CAF9F0
:1031B00014E004F1240020610120E061E06820F4C3
:1031C000407040F48060E6E721696068401AA169B8
:1031D0000144504619F051FD0028A6DBE068C00309
:1031E0002AD56168E06A884200D808462169451AF4
:1031F000E069471B1BD02046D4F81880FFF7A2F9DE
:1032000008EB05015046C4F8188019F036FD002877
:103210008BDBE06840F40030E060000202D5A0697A
:103220002844A061E1692069C91B45180DE02046CA
:10323000FFF788F9E769F5E725696168D4E90607CA
:10324000491BE56208446560A061E06820F0100059
:1032500010F4C06FE06002D0204600F0DBFBE068B5
:1032600040F48050C4E90260000205D52069E062A4
:1032700060606FF0010046E7224639462846FFF7B6
:10328000F9FE411C0CD02918E16258B1401E2060A3
:10329000681C6060E06840F40030E060287832E745
:1032A000484630E765602046FFF7FFFEF8E72DE966
:1032B000F04705460C46C86820F4201040F4800012
:1032C000C860800602D50846FFF75FF9E06841F262
:1032D00082014FF0FF390140022903D02046FFF759
:1032E000FDF8B5E000F42041B1F5004F0FD1C00367
:1032F00006D56168E06A884200D80846606006E04A
:103300002069E0626060606919F03BFCA061A06820
:103310000022EEB200280DDAE1688B050AD4C04322
:10332000A06041F490302260E0606068411C616000
:103330000670A5E0E0689046226040F40050E0602E
:10334000206968BB606919F031FC012704F124058C
:10335000A0B1A08910F4407F08D0E069FEF731FCED
:10336000206118B1E06840F4006016E0E761256173
:10337000E06820F4407040F480600EE0E069FEF701
:1033800020FC00282061F1D0E06840F4006010F4D7
:10339000407FE06002D140F48070E06020696060AE
:1033A000E06825696FF0010AC1051FD56168E06A10
:1033B000884200D80846411B04D022462846FFF721
:1033C00097F8F0BBE068010203D5E562C4E9015853
:1033D00054E0691CE1626160E16940F48030491E9B
:1033E000C4E9021030462E70BDE8F087010202D514
:1033F00000F480320AE06068411C61600670E06899
:103400000A2E40F48030E06006D00022E16A606855
:10341000814203D90B4602E00122F7E70346A78960
:103420005B1B7F0503D4E7699F4200DDE2B1814267
:1034300000D80146E5620F1AC4E90158002B09DDE6
:1034400000E005E0224619462846FFF751F808B18A
:103450004846C9E747B1A069E5626560C01BA06145
:10346000E06840F01000E060E068000208D56168A4
:10347000A069E562491B08446560A0615046B3E756
:103480003046B1E710B565485421FEF702FA6448AA
:103490005421FEF7FEF963485421FEF7FAF9624819
:1034A0005E49624A624B01605D4810605D4A1A6085
:1034B000431C0B65511C01650120106557484C30B9
:1034C00019F02CFB56484C3019F028FB55484C306D
:1034D00019F024FB574819F021FB58484F4A56A1D0
:1034E0007844FEF732F820B9544878440A3800F09E
:1034F000C8FA54484A4A52A17844FEF726F820B93F
:10350000504878440A3800F0BCFA4F48454A4CA16C
:103510007844FEF71AF820B94B4878440A3800F08E
:10352000B0FA40233D48DC000021224600F03DF97E
:1035300020B142487844543800F0A3FA3848224673
:103540004023002100F031F920B13E48784454383E
:1035500000F097FA334822461023002100F025F9A5
:10356000002806D038487844BDE81040563800F0AE
:1035700088BA10BD2B482DE9F041006D2D4E20F08A
:103580000104304619F0B9FA244D4C35284619F09B
:10359000B4FA2248FDF7C4FE284619F0D0FA2846AE
:1035A00019F0B6FA1E4D4C35284619F0A6FA1C48FB
:1035B000FDF7B6FE284619F0C2FA284619F0A8FA17
:1035C000184D4C35284619F098FA1648FDF7A8FE14
:1035D000284619F0B4FA284619F09AFA14E0206D3A
:1035E00020F0010504F14C00074619F086FA204648
:1035F000FDF796FE384619F0A2FA384619F088FA17
:103600002046FEF719FB2C46002CE8D1304619F075
:1036100096FA084819F07CFABDE8F08188D50120B7
:10362000DCD5012030D6012060C5002064C5002013
:1036300068C500205CC500207200000070660400B0
:10364000770000005F6604004F66040070B5164600
:103650000C460546FEF768FA036893F80101012855
:1036600006D0FF2C0FD8185D68B101202C7070BDFA
:10367000D3F807013246214603F2071303442846D4
:10368000BDE8704018474FF0FF3070BD7546FEF73B
:1036900047FAAE4605006946534620F007008546C6
:1036A00018B020B5FDF710FABDE820404FF0000635
:1036B0004FF000074FF000084FF0000B21F007011A
:1036C000AC46ACE8C009ACE8C009ACE8C009ACE85D
:1036D000C0098D46704730B404468C464368002BC1
:1036E00018BF634538BF1846F8D3036818446045CF
:1036F00007D0C81C20F0070000F1040CACEB01005F
:10370000121A2146CCF8002030BC00220CF1040033
:10371000FEF761BA2DE9F04114460D46074601F166
:103720004C06304619F0E9F9094B7B4422462946FC
:103730003846FEF72AFD0446287B000601D54FF0E7
:10374000FF34304619F0FBF92046BDE8F081000057
:10375000156D02002DE9F041044617460D4602F1B1
:103760004C00804619F0C9F9012D264616DD384671
:1037700023F090FB411C0FD0C0B20A2804F8010BC3
:1037800002D06D1E012DF2DC00202070404619F0A1
:10379000D6F93046BDE8F081B44201D10026F5E704
:1037A000387B0006F0D50026EEE72DE9F047044609
:1037B0001E4690460D46C7684C30814619F09DF96B
:1037C000B80714D0780212D44046B8F5807F09D0EB
:1037D000B0F5007F06D0B8F5806F08D1012604F15E
:1037E000240506E0701E6FF07F41884201D301245A
:1037F00009E02561E6616560E06820F4706040EAF8
:103800000800E0600024484619F099F92046BDE818
:10381000F0872DE9FF4F06461C468B4681B003F129
:103820004C00009019F069F9BBF1000F06D0039924
:103830002768002528460BFB01F963E000247AE0A5
:10384000002F61DCE06948453FDABAF1000F3CD057
:10385000207B800601D5A06A04E0A1696068084465
:103860002169401A2246A9EB050180463046FFF740
:1038700001FC002812DD8044A8F101010644A16189
:10388000226916F8011C0027054411702169491CA2
:10389000E1626160E16841F40031E160411C03D004
:1038A00010B1207B400642D52046FFF7FEFBC4F84E
:1038B000188020696060E062E068276020F40030D2
:1038C000E060E0694042A06018E0484503DAE06843
:1038D00040F40000E0602046FFF7FBFBE16821F4C4
:1038E0000001E160411C08D0811C0AD02768002833
:1038F00007DB6D1C06F8010B19E02760B5FBFBF434
:1039000019E00120824612E0A9EB0500B846B84252
:1039100000DA8046304642466168FDF719FF61686B
:10392000A7EB0807464401EB0800454460604D459D
:1039300086DB2760039C009819F001F905B020464A
:10394000BDE8F08F2DE9F05F0E4680461C4692469A
:1039500002FB06F503F14C00834619F0CEF816B3CE
:10396000A768002041E0002F41DCE069A8421CDA92
:10397000B9F1000F19D0224629464046FEF7B8FD9E
:1039800008B1A76029E0E06810F4C06F01D0002002
:1039900008E022696168891AE269511AC003A160CE
:1039A00001D44842A060544618E0A84203DAE06817
:1039B00040F40000E060214698F80000FFF777FC33
:1039C000E16821F40001E160411C06D0A7680028ED
:1039D0000ADB6D1E08F1010818E00024584619F0B2
:1039E000AEF82046BDE8F09F012081460EE0AF42D0
:1039F0003E4600DD2E46414632466068FDF7A8FE91
:103A00006068BF1BAD1B3044B0446060002DAADC71
:103A1000A760C8E72DE9F04707461348814619F02B
:103A20006CF8124C40F2022817E094F85000C007DE
:103A300010D0BC420ED004F14C05284619F05DF8B8
:103A4000E668284619F07BF838EA060002D12046DD
:103A5000FDF7DCFC206D20F00104002CE5D1484688
:103A600019F06DF8BDE8F0875CC5002088D501200D
:103A700010B50446AFF300802046BDE81040FCF7C7
:103A800052BC10B500F01AF8BDE8104000F010B8B4
:103A900010B500F02DF8BDE8104000F009B87047EF
:103AA00010B5FEF7EFFD0068BDE8104000F04EB81D
:103AB000002801D000F044B87047000010B501465E
:103AC00002A000F048F8012010BD00005349475201
:103AD000545245443A2052656469726563743A20D1
:103AE00063616E2774206F70656E3A2000000000DD
:103AF00010B5012805D0002103A000F02CF801200A
:103B000010BD09A1F8E7000053494752544D454DF7
:103B10003A204F7574206F662068656170206D656E
:103B20006D6F7279000000003A2048656170206D69
:103B3000656D6F727920636F727275707465640061
:103B400001491820ABBEFEE72600020010B50C307C
:103B500018F0DEFF10BD70B505460C460A2000E0E7
:103B60006D1C00F011F835B128780028F8D102E07A
:103B7000641C00F009F814B120780028F8D1BDE8E1
:103B800070400A20AFF3008008B569468DF8000048
:103B90000320ABBE08BD5FEA400C08BF91F0000FE8
:103BA0004FEA8C234FEAC12243EA51514FEA1C509D
:103BB00018BF00F5F0404FEA300018BF41F0004157
:103BC0005FEA6C5C00F02980BCF1FF3F08BF40F069
:103BD00080407047130C06BF12044FF0100C4FF0DA
:103BE000000C130E04BF12020CF1080C130F04BFDB
:103BF00012010CF1040C930F04BF92000CF1020CA3
:103C0000D30F04BF52000CF1010C11464FF000021B
:103C1000A0F11F00A0EB0C00704711F0004F08BF8F
:103C2000704731F000413FF4D5AF0B0C06BF0904DB
:103C30004FF0100C4FF0000C0B0E04BF09020CF1FA
:103C4000080C0B0F04BF09010CF1040C8B0F04BF0F
:103C500089000CF1020CCB0F04BF49000CF1010CE0
:103C6000CCF12003A0EB0C0022FA03F302FA0CF2D1
:103C700041EA030100F10100704720F07F4C80EA27
:103C8000030023F07F47ACEB070303F57C5300F000
:103C9000004003F1FF032DE980494FEA154B09B4B9
:103CA0004FEA144325EA0B4E24EA03480FF2042698
:103CB00006EB132749083E785FEA320203FB0667EA
:103CC000C7F5000707FB06F64FEA54374FEAD6461A
:103CD00006F1020607FB066CCCF1005C4FEA1C47BC
:103CE0002CEA074C07FB06F40CFB06F504EB154623
:103CF0004FEA961634BF00204FF000404FEAD1370C
:103D000006FB07FC4FEA1C4C0CFB0BF7D21B03FB1A
:103D10000CF761EB07010CFB0EF7B0EB074072EB01
:103D200017420CFB08F734BFA2EB0742B2EB074285
:103D300061EB17414FEA0C444FEA910706FB07FC81
:103D40004FEA1C4C0CFB0BF7B0EBC74072EB573241
:103D500003FB0CF734BFA2EBC742B2EBC74261EBE7
:103D600057310CFB0EF7B0EBC70072EB57720CFB30
:103D700008F734BFA2EBC702B2EBC70261EB577181
:103D8000039F4FEA816141EA921104EBCC044FEAB0
:103D9000D1374FEA826206FB07FC42EA90124FEAF3
:103DA00080604FEA1C4C0CFB0BF7D21B03FB0CF79B
:103DB00061EB07010CFB0EF7B0EB074072EB17420B
:103DC0000CFB08F734BFA2EB0742B2EB074261EBF2
:103DD00017414FEA8C554FEA910704EB9C2406FBF0
:103DE00007FC4FEA1C4C0CFB0BF7B0EBC74072EB27
:103DF000573203FB0CF734BFA2EBC742B2EBC7420A
:103E000061EB57310CFB0EF7B0EBC70072EB57724A
:103E10000CFB08F734BFA2EBC702B2EBC70261EBA1
:103E2000577115EB4C254FEA816141EA92114FEA37
:103E300082624FEAD13742EA901206FB07FC44F156
:103E400000044FEA80604FEA1C4C0CFB0BF7D21BBE
:103E500003FB0CF761EB07010CFB0EF7B0EB07401F
:103E600072EB17420CFB08F734BFA2EB0742B2EB30
:103E7000074261EB174115EB1C154FEA813141EA0E
:103E800092414FEA823242EA90424FEA80304FEA52
:103E90000C7644F1000448EA03434EEA0B484FF025
:103EA000000EB2EB080C71EB030724BF62463946E3
:103EB0004EEB0E0E4FF0000B0018524149414BEBF8
:103EC0000B0BB2EB080C71EB03077BF1000B24BF6B
:103ED000624639464EEB0E0E4FF0000B0018524171
:103EE00049414BEB0B0BB2EB080C71EB03077BF179
:103EF000000B24BF624639464EEB0E0E51EA020714
:103F000018BF46F0010616EB0E7655F1000254F18B
:103F1000000103D5BDE88901BDE80088BDE889013D
:103F2000BDE80048B619524141EB0101A3F101037C
:103F3000704780807F7E7D7C7B7A79787776767516
:103F40007473727171706F6E6E6D6C6C6B6A6A698E
:103F50006868676666656464636362616160605F28
:103F60005F5E5E5D5D5C5C5B5B5A5A5959585857A1
:103F70005756565555555454535352525251515009
:103F800050504F4F4F4E4E4D4D4D4C4C4C4B4B4B5C
:103F90004A4A4A49494948484847474747464646A2
:103FA00045454544444444434343434242424241DD
:103FB0004141002B9C4630D477002BD01CB54FEAF2
:103FC000370703B44FF010004FF01001BAF1000FA3
:103FD00006D0BCF1000FDCBF40F0080040F0080143
:103FE0004FF000000FBCBDE810400BF1010BBBF11E
:103FF000010F08BF5FEA170722BF12F1010211F19A
:1040000001014FF0004143F1000300F0004043EA9A
:1040100000007047F9D35708D0E746EA064613F187
:10402000400F4FEA16461FDD13F1200FDFBF164386
:104030000A46002120335B42BED0C3F1200746EA86
:10404000064602FA07F74FEA164646EA0706C3F1A4
:10405000200722FA03F201FA07F721FA03F14FF0E1
:10406000000342EA0702A7E746EA020646EA0646D6
:104070004FEA164646EA0106BCBF46EA0646360C3B
:104080004FF000034FF000024FF0000194E72DE9DC
:10409000804C9A46934670B491E8380007C831EADC
:1040A000400C48BF34EA430C03D5FFF7E6FDFFF7A9
:1040B00080FFF0BCBDE8008C2DE9804C9A46934609
:1040C00070B491E8380007C810F0804F08BF13F0B3
:1040D000804F03D100F005F8FFF76BFFF0BCBDE89F
:1040E000008C20F07F4780EA030023F07F4C07EB31
:1040F0000C03A3F57C5300F00040A3F1FE0392F003
:10410000000F00F0B38095F0000F00F077802DE9EC
:1041100001494FEA11404FEA144621EA004800FBEA
:1041200006FC24EA064708FB06F607FB08F800FB36
:1041300007F718EB06484CEB164C4FEA124B18EBFE
:1041400007484FEA15464CEB174022EA0B4E0BFB93
:1041500006FC25EA06470EFB06F607FB0EFE0BFBE8
:1041600007F71EEB064E4CEB164C4FF000061EEB0D
:10417000074E4CEB174B18EB0B0840F1000018EB07
:104180000E0B58EB000840F100008F1A4FF00001B1
:104190003CBFC943661B14BFB5EB040C00213CBFF8
:1041A000C943F61B4FEA17444EEA8E0E27EA044530
:1041B0004FEA1C4704FB07622CEA074C05FB07F794
:1041C0000CFB05F604FB0CFC16EB074642EB174212
:1041D00016EB0C4642EB1C421BEB060658EB0202A8
:1041E000414146EA9E0601D5BDE80189B619524112
:1041F00041EB0101A3F10103BDE801894FEA144538
:104200004FEA114724EA054621EA074C05FB07F46B
:1042100006FB07F70CFB06F105FB0CFC11EB074155
:1042200044EB17444FEA124711EB0C4144EB1C449A
:1042300022EA074C05FB07F206FB07F70CFB06F624
:1042400005FB0CFC16EB074642EB174216EB0C463F
:1042500042EB1C456A1854F1000148BF7047B6197B
:10426000524141EB0101A3F10103704795F0000FAA
:1042700037D04FEA11424FEA144721EA024624EAB6
:10428000074C02FB07F106FB07F70CFB06F402FBE9
:104290000CFC14EB074441EB17414FEA154714EBB4
:1042A0000C4441EB1C4125EA074C02FB07F506FBD9
:1042B00007F70CFB06F602FB0CFC16EB074645EB7A
:1042C000174516EB0C4645EB1C42121951F1000143
:1042D00048BF7047B619524141EB0101A3F10103F8
:1042E00070474FEA14454FEA114724EA054621EA90
:1042F000074C05FB07F106FB07F70CFB06F24FF036
:10430000000605FB0CFC12EB074241EB174112EBD8
:104310000C4251EB1C4148BF7047921841EB010120
:10432000A3F10103704701466FF0030070470000DE
:10433000FEB50026BC49897A01EB8112BB490968A8
:1043400001F5A47111F8320028F038FF064640F25A
:10435000CF10C31E40F211324B2100900F2009F004
:1043600087FF40F2CF10B24908604FF6FF70B149A5
:1043700008604FF482745525AB48807A421CAEA188
:1043800002A8FCF75FFC02A810210B460A46CDE903
:104390000010294620460BF0B3FD103400201023F6
:1043A000642229460090204605F0D2FA10340020FD
:1043B00010232D2229460090204605F0C9FA10341A
:1043C00000201023572229460090204605F0C0FA0D
:1043D000103400201023162229460090204605F0B4
:1043E000B7FA1034002010235322294600902046AB
:1043F00005F0AEFA10340020102365222946009003
:10440000204605F0A5FA1034002010232822294662
:10441000009020460BF08CFC04F1080084B20020D0
:104420001023682229460090204605F091FA04F1F5
:10443000100084B2002010236922294600902046F3
:1044400005F086FA04F1100084B2002010236A22DD
:1044500029460090204605F07BFA04F1100084B252
:10446000002010236B2229460090204605F070FAA8
:1044700004F1100084B20020102354222946009039
:1044800020460BF055FC04F1140084B200201023E8
:104490006C2229460090204605F05AFA04F11000DB
:1044A00084B2002010236D2229460090204605F09A
:1044B0004FFA04F1100084B2002010236E22294626
:1044C0000090204605F044FA04F1100084B2002068
:1044D00010236F2229460090204605F039FA04F196
:1044E000100084B200201023292229460090204683
:1044F0000BF01EFC0F2469252B4640F21132294691
:10450000204609F0ABFD6B1C691C40F211322046BD
:1045100009F0A4FD40F2CF104549086078247525C4
:1045200000201023092229460090204605F010FAA9
:104530001034002010231A2229460090204605F04E
:1045400007FA1034002010235622294600902046F6
:104550000BF0EEFB4E340020102320222946009061
:10456000204605F0F5F910340020102321222946B9
:104570000090204605F0ECF9103430A010211423EF
:104580000822CDE90010294620460BF0B9FC08347A
:1045900000201023562229460090204605F0D8F925
:1045A0004E3400201023222229460090204605F098
:1045B000CFF91034002010232322294600902046F2
:1045C00005F0C6F910341EA0102114230822CDE9ED
:1045D0000010294620460BF093FC4FF41174002084
:1045E0001023152229460090204605F0B1F9103419
:1045F00000201023162229460090204605F0A8F935
:10460000103400201023342229460090204605F063
:104610009FF91034002010233522294600902046AF
:1046200005F096F9FEBD00001414012008C2002018
:10463000D8C20020D4C200205425640075000000B8
:104640004300000000B59DB000200E900D90069034
:10465000059004900390029040F2CF10831C40F22A
:104660001132962100900F2009F002FEFE48C0781A
:10467000FD49897A884202D00021FB488181FA48AD
:10468000807AF949C8700846807A00EB8011F748B3
:10469000006800F5A47010F83100019028F08EFD3C
:1046A0000D90F148807A019004F0A2FB0C900C98D8
:1046B000401C092190FBF1F201FB120038B10C986B
:1046C000401C90FBF1F0401C80B20B9006E00C986F
:1046D000401C092190FBF1F080B20B90E2488189E7
:1046E0000B98814202DB0021DF488181DE4880890E
:1046F00010B900200A9006E0DB48808900EBC0007A
:10470000401E80B20A900A98401C80B20790D6489A
:10471000808900285CD11E201B9096201A9040F2C0
:10472000CF10D34908604FF6FF71D2480160CE48E0
:10473000807A401C0246D0A1019010A8FCF782FAB2
:1047400010A8102114233022CDE90010DDE91A1041
:104750000BF0D6FB0D98B0F8440004900D98B0F81B
:10476000460003900D98B0F848000290BDF8100084
:1047700078BBBDF80C0060BBBDF8080048BB4FF625
:10478000FF70BC49086040F2CF10B94908604FF48F
:10479000D7701B900020102346220090DDE91A10EC
:1047A00005F0D6F81B9810301B90002010235722DC
:1047B0000090DDE91A1005F0CBF81B9810301B9023
:1047C0000020102316220090DDE91A1005F0C0F831
:1047D000E4E3FFE764201B904FF60240A549086020
:1047E00040F2CF10A2490860BDF8100000F00300AD
:1047F000A0B30020102337220090DDE91A1005F045
:10480000A7F81B98103080B21B90002010231A22AA
:104810000090DDE91A1005F09BF81B98103080B26B
:104820001B9010200090BDF8100000F00300012341
:1048300002460190DDE91A100BF018FB1B980830B6
:1048400080B21B90002010232C220090DDE91A106A
:104850000BF06EFA1B98083080B21B90BDF8100068
:10486000C0F38100A0B30020102358220090DDE99E
:104870001A1005F06DF81B98103080B21B900020C4
:1048800010231A220090DDE91A1005F061F81B9838
:10489000103080B21B9010200090BDF81000C0F3C3
:1048A0008100012302460190DDE91A100BF0DEFAC7
:1048B0001B98083080B21B90002010232C220090FF
:1048C000DDE91A100BF034FA1B98083080B21B9007
:1048D000BDF81000C0F30110A0B300201023372250
:1048E0000090DDE91A1005F033F81B98103080B203
:1048F0001B900020102322220090DDE91A1005F001
:1049000027F81B98103080B21B9010200090BDF843
:104910001000C0F30110012302460190DDE91A10D6
:104920000BF0A4FA1B98083080B21B9000201023D3
:104930002C220090DDE91A100BF0FAF91B980830D0
:1049400080B21B90BDF81000C0F38110B0B34CA032
:1049500010210B461822CDE90010DDE91A100BF0EA
:10496000CFFA1B98183080B21B90002010233F22F2
:104970000090DDE91A1004F0EBFF1B98103080B2B4
:104980001B9010200090BDF81000C0F3811001238F
:1049900002460190DDE91A100BF068FA1B98083006
:1049A00080B21B90002010232C220090DDE91A1009
:1049B0000BF0BEF91B98083080B21B90BDF80C00BC
:1049C00000F0010018B3002010235D220090DDE903
:1049D0001A1004F0BDFF1B98103080B21B9000200D
:1049E00010231A220090DDE91A1004F0B1FF1B9881
:1049F000103080B21B90002010232C220090DDE9A3
:104A00001A100BF095F91B98083080B21B90BDF876
:104A10000C00C0F34000A8B300201023092200902E
:104A2000DDE91A1004F094FF1B98103080B21B903F
:104A3000002010231B220090DDE91A1004F088FFEB
:104A40001B98103080B21B90102001231A46009052
:104A5000DDE91A100BF00AFA1B98083080B21B909F
:104A6000002010232C220EE01414012008C2002084
:104A7000D8C20020D4C200205425642D303030002C
:104A8000534F430008E00090DDE91A100BF050F995
:104A90001B98083080B21B90BDF80C00C0F340108A
:104AA00018B30020102322220090DDE91A1004F030
:104AB0004FFF1B98103080B21B9000201023232240
:104AC0000090DDE91A1004F043FF1B98103080B20B
:104AD0001B90002010232C220090DDE91A100BF00F
:104AE00027F91B98083080B21B90BDF80C00C0F36A
:104AF000801018B30020102359220090DDE91A100D
:104B000004F026FF1B98103080B21B900020102369
:104B10005A220090DDE91A1004F01AFF1B98103099
:104B200080B21B90002010232C220090DDE91A1087
:104B30000BF0FEF81B98083080B21B90BDF80C00FB
:104B4000C0F3C01018B3002010235E220090DDE9EE
:104B50001A1004F0FDFE1B98103080B21B9000204C
